:020000040800F2
:1000000048050020450100084D0100084F01000887
:1000100051010008530100085501000800000000CC
:100020000000000000000000000000005701000870
:1000300059010008000000005B0100085D01000894
:100040005F0100085F0100085F0100085F01000810
:100050005F0100085F0100085F0100085F01000800
:100060005F0100085F0100085F0100085F010008F0
:100070005F0100085F0100085F0100085F010008E0
:100080005F0100085F0100085F0100085F010008D0
:100090005F0100085F0100085F0100085F010008C0
:1000A0005F0100085F0100085F0100085F010008B0
:1000B0005F010008A11400085F0100085F0100084B
:1000C0005F0100085F0100085F0100085F01000890
:1000D0005F010008C11700085F0100085F01000808
:1000E0005F0100085F0100085F0100085F01000870
:1000F0005F0100085F0100085F0100085F01000860
:100100005F0100085F0100085F0100085F0100084F
:100110005F0100085F0100085F0100085F0100083F
:100120005F0100085F0100085F0100085F0100082F
:10013000DFF80CD000F02CF900480047111E000831
:10014000480500200648804706480047FEE7FEE7CE
:10015000FEE7FEE7FEE7FEE7FEE7FEE7FEE7FEE777
:100160004114000831010008F0B480EA0102D40F04
:100170004200B2EB410F02D20246084611464A0045
:1001800042D0C30DDDB2C1F3C752AD1A202D35DA0E
:10019000C1F3160141F4000204B15242C5F1200638
:1001A00002FA06F12A411044B3EBD05F23D0C4B168
:1001B000012DA0EBC35009DCF0BC4FF0004202EA75
:1001C000C352DBB200F5000000F0B3B8400000F10C
:1001D000807000EBC350A0F1807040EAD1704900FC
:1001E00009E0490841EAC071A0EBC35000F50000E6
:1001F000400800EBC350F0BC00F092B8614201220D
:1002000002EB4101001BF6E7F0BC704781F00041B2
:10021000AAE780F00040A7E780EA010210B502F0EB
:100220000043400022D04A001FD0010E01EB1261B2
:10023000C0F35600C2F3560240F4000042F400023C
:10024000A0FB022000047F39140400D0401C50EAB7
:10025000124001D44000491EC2B20C0604EBD0107B
:10026000401C4008802A02D003E0002010BD20F08E
:100270000100002900DA0020184310BD30B480EAE4
:10028000010202F0004530F0004221F0004013D09E
:1002900090B1C30DD40DC2F31601C0F31600E41AD9
:1002A00041F4000140F400027D34914201D3641C0A
:1002B00000E04900002C02DA30BC002070474FF407
:1002C00000000023914201D3891A034340084FEAFA
:1002D0004101F7D151B1914202D14FF0004105E007
:1002E00002D24FF0010101E06FF0010103EBC450B5
:1002F000284430BC00F014B820F00040C10DC0F319
:10030000160040F400007F2901DA0020704796298A
:1003100003DCC1F19601C8407047963988407047A8
:100320000029A8BF7047401C490008BF20F0010009
:10033000704710B4B0FA80FC00FA0CF050EA0104E7
:1003400004BF10BC704749B1CCF1200421FA04F479
:1003500011FA0CF118BF012121430843A3EB0C0152
:10036000CB1D4FEA00614FEA102042BF002010BCB5
:10037000704700EBC35010440029A4BF10BC704765
:10038000401C490008BF20F0010010BC704700006D
:10039000064C074D06E0E06840F0010394E80700D2
:1003A00098471034AC42F6D3FFF7C6FEC0210008D0
:1003B000E021000821B1826842F00102826003E07E
:1003C000826822F001028260704721B1826842F4A3
:1003D0008072826003E0826822F4807282607047DB
:1003E00010B504461248844208D10121401500F09E
:1003F0001FFF0021601500F01BFF17E00D4884422D
:1004000008D10121001500F013FF0021201500F094
:100410000FFF0BE00848844208D10121C80300F017
:1004200007FF00214FF4004000F002FF10BD000064
:100430000024014000280140003C0140014600200A
:100440008A6802F004020AB1012000E0002070472F
:10045000014600208A6802F008020AB1012000E08B
:100460000020704730B502460020002350680F4C32
:1004700020400D790C6844EA0524204350609068C0
:100480000B4C2040D1E902542C434D7944EA4504F9
:1004900020439060D06A20F470000C7C641EE4B2AB
:1004A000234340EA0350D06230BD0000FFFEF0FF5E
:1004B000FDF7F1FFF0B504460D4600200021092D9F
:1004C00011DDE068A5F10A0606EB4607072606FAE5
:1004D00007F18843A5F10A0606EB460603FA06F182
:1004E0000843E0600CE0206905EB4507072606FAA3
:1004F00007F1884305EB450603FA06F1084320613E
:10050000072A0FDA606B561E06EB86071F2606FACF
:1005100007F18843561E06EB860605FA06F10843E6
:10052000606322E00D2A0FDA206BD61F06EB8607E8
:100530001F2606FA07F18843D61F06EB860605FA42
:1005400006F10843206310E0E06AA2F10D0606EB15
:1005500086071F2606FA07F18843A2F10D0606EB6F
:10056000860605FA06F10843E062F0BD816841F0B5
:1005700008018160704721B1826842F4A002826064
:1005800003E0826822F4A00282607047816841F033
:1005900004018160704700002DE9F04188B00446F5
:1005A0000D4616461F46DDF838800121042000F074
:1005B0002FFE0121480600F00BFE4FF48050ADF8ED
:1005C0001C0003208DF81E0018208DF81F0007A9BD
:1005D000264800F087FC4FF40060ADF81C0048206E
:1005E0008DF81F0007A9214800F07CFC00208DF841
:1005F00016008DF817008DF8180001208DF81900ED
:1006000000208DF81A008DF81B008DF812808DF8EF
:1006100013408DF814608DF81550ADF8107004A9D2
:10062000134800F061F900208DF80A008DF80B00E6
:1006300001208DF80C004FF4C040ADF80000002000
:10064000ADF802004FF6FF70ADF804000020ADF8E1
:100650000600ADF8080001208DF80D00684600F096
:10066000BFF8002008B0BDE8F0810000000801409C
:100670000064004000B585B000210B4800F0BEF9D1
:1006800010B9002005B000BD6A460021064800F000
:10069000C4F90098B0F5407F03D19DF80C000349E0
:1006A00008709DF80A00EDE700640040700000202B
:1006B0002DE9F04188B004460D4616461F46DDF888
:1006C00038800121082000F0A3FD0121880600F0F8
:1006D0007FFD4FF40050ADF81C0003208DF81E0084
:1006E00018208DF81F0007A9244800F0FBFB4FF4E9
:1006F0008050ADF81C0048208DF81F0007A91F4846
:1007000000F0F0FB00208DF816008DF817008DF832
:10071000180001208DF8190000208DF81A008DF8BE
:100720001B008DF812808DF813408DF814608DF841
:100730001550ADF8107004A9114800F0D5F80E203E
:100740008DF80A0000208DF80B0001208DF80C00B8
:100750000020ADF80000ADF80200ADF80400ADF8DF
:100760000600ADF8080001208DF80D00684600F085
:1007700037F8002008B0BDE8F0810000000C01400F
:100780000068004010B586B004460021124800F011
:1007900035F910B9002006B010BD01AA00210E489D
:1007A00000F03BF90D490298884206D19DF81300EC
:1007B00020709DF8140060700AE00849491E0298F4
:1007C000884205D19DF81100A0709DF81200E070DC
:1007D0009DF80E00DFE7000000680040FBFFFF1FF0
:1007E00010B50021837A012202FA03F13D4A126812
:1007F00042F001023B4B1A603A4A1C3212688A43AB
:10080000384B1C331A60027BCAB9364A0C32126864
:100810008A43344B0C331A604288C38842EA03434C
:10082000304A4032847A42F834300288838842EA7F
:1008300003432C4A4032847A02EBC4025360027BA9
:10084000012A19D1274A0C3212680A43254B0C336E
:100850001A604288038842EA0343224A4032847A7B
:1008600042F83430C288838842EA03431D4A40324A
:10087000847A02EBC4025360C27A3AB9194A121D53
:1008800012688A43174B1B1D1A6006E0154A121D99
:1008900012680A43134B1B1D1A60028932B9114AB0
:1008A000143212688A430F4B14331A600289012AEA
:1008B00006D10C4A143212680A430A4B14331A60E8
:1008C000427B012A06D1074A1C3212680A43054BB3
:1008D0001C331A60034A126822F00102014B1A60AD
:1008E00010BD00000066004030B502460020002325
:1008F000146824F002041460146844F001041460C5
:1009000000E05B1C546804F001041CB94FF6FF744E
:10091000A342F6D1546804F001040CB900206CE045
:100920008C79012C04D1146844F08004146003E035
:10093000146824F080041460CC79012C04D114686C
:1009400044F04004146003E0146824F04004146090
:100950000C7A012C04D1146844F02004146003E0E4
:10096000146824F0200414604C7A012C04D114681B
:1009700044F01004146003E0146824F010041460C0
:100980008C7A012C04D1146844F00804146003E04C
:10099000146824F008041460CC7A012C04D1146883
:1009A00044F00404146003E0146824F004041460A8
:1009B0008C78A407CD7844EA05640D7944EA0544AF
:1009C0004D7944EA05540D886D1E2C43D46114689A
:1009D00024F001041460002300E05B1C546804F060
:1009E00001041CB14FF6FF74A342F6D1546804F021
:1009F00001040CB1002000E0012030BD02460020BF
:100A000019B9D36803F0030006E0012903D1136983
:100A100003F0030000E00020704710B500F5D87324
:100A200003EB01131B6803F004031372137A53B929
:100A300000F5D87303EB01131B6840F2FF7404EA5E
:100A40005353136009E000F5D87303EB01131B68DF
:100A50006FF0604404EAD303536000F5D87303EBEE
:100A600001131B6803F00203537200F5D87303EB04
:100A700001135B6803F00F03937200F5D87303EB67
:100A800001135B681B0AD37400F5D87303EB0113E1
:100A90009B68D37200F5D87303EB01139B681C0AA3
:100AA000147300F5D87303EB01139B681C0C54738B
:100AB00000F5D87303EB01139B681B0E937300F5CD
:100AC000D87303EB0113DB68D37300F5D87303EB22
:100AD0000113DB681C0A147400F5D87303EB0113CF
:100AE000DB681C0C547400F5D87303EB0113DB684E
:100AF0001B0E937421B9C36843F02003C36003E065
:100B0000036943F02003036110BD00002DE9F041AB
:100B100086B007460D4690460024CDF8048000209C
:100B20008DF80C008DF80D008DF80E5000BF05E01B
:100B3000395D0DF10F000155601C84B2AC42F7DB4A
:100B400001A90D4800F01AF80646002401E0601CD7
:100B500084B23146084800F0A5F818B940F6FF7095
:100B60008442F4DB40F6FF70844203DB012006B0D0
:100B7000BDE8F0810020FAE70064004010B50246AD
:100B80000020936803F08063B3F1806F00D110E020
:100B9000936803F00063B3F1006F01D1012008E016
:100BA000936803F08053B3F1805F01D1022000E02D
:100BB0000420042874D002F5C07303EB00131B68F3
:100BC00003F0010402F5C07303EB00131C600B7A01
:100BD0007BB94B7A0C8843EA445302F5C07404EBAA
:100BE00000142468234302F5C07404EB001423604E
:100BF00010E00B7A4C6843EAC4034C7A234302F5B5
:100C0000C07404EB00142468234302F5C07404EBA1
:100C1000001423608B7A03F00F038B7202F5C0730C
:100C200003EB00135B6823F00F0402F5C07303EBC2
:100C300000135C6002F5C07303EB00135B688C7AF1
:100C4000234302F5C07404EB001463608B7B1C0625
:100C50004B7B44EA03440B7B44EA0323CC7A2343D3
:100C600002F5C07404EB0014A3608B7C1C064B7C63
:100C700044EA03440B7C44EA0323CC7B234302F580
:100C8000C07404EB0014E36002F5C07303EB0013BF
:100C90001B6843F0010402F5C07303EB00131C60F2
:100CA00010BD000010B50246002321B1012907D074
:100CB00002290FD109E090681D4C00EA04030BE003
:100CC00090681C4C00EA040306E090681A4C00EAA5
:100CD000040301E0002300BF00BF184C181BA3420F
:100CE00016D007DC83B16FF08060184470B1022821
:100CF00018D111E0B0F5007F10D0114C204448B15C
:100D0000B0F5003F0ED10BE002230DE000230BE015
:100D1000002309E0002307E0012305E0012303E0AD
:100D2000012301E0002300BF00BFD8B210BD0000C6
:100D30000300000400030008000003100001000885
:100D40000001FFF721B1026842F00102026004E0F5
:100D500002684FF6FE731A400260704701684FF652
:100D6000FE72114001600021016041608160C1603C
:100D70004B49884208D14A490839496841F00F0176
:100D8000474A083A51608AE045491431884208D1FF
:100D900043490839496841F0F001414A083A516035
:100DA0007DE03F492831884208D13D4908394968EA
:100DB00041F470613A4A083A516070E038493C3178
:100DC000884208D136490839496841F47041344AAB
:100DD000083A516063E032495031884208D13049C5
:100DE0000839496841F470212D4A083A516056E0AB
:100DF0002B496431884208D129490839496841F4AE
:100E00007001274A083A516049E025497831884203
:100E100008D123490839496841F07061204A083AED
:100E200051603CE01F49884206D1011F096841F02A
:100E30000F01021F116032E01A491431884208D1B3
:100E40001849091F096841F0F001164A121F116084
:100E500025E014492831884208D11249091F096840
:100E600041F470610F4A121F116018E00D493C31C6
:100E7000884208D10B49091F096841F47041094AA9
:100E8000121F11600BE007495031884207D1054914
:100E9000091F096841F47021024A121F116070474E
:100EA000080002400804024010B50022026847F61C
:100EB000F0739A430C6A8B6823430C6923434C6993
:100EC00023438C692343CC6923434C6A23438C6AB4
:100ED00023431A430260CB6843600B6883604B680E
:100EE000C36010BD2DE9F041024600250026002018
:100EF00000230024002791F803C00CF00F0591F89F
:100F000003C00CF0100CBCF1000F03D091F802C02C
:100F10004CEA050591F800C0BCF1000F31D014680F
:100F200000202BE04FF0010C0CFA00F3B1F800C0E8
:100F30000CEA03069E4220D183004FF00F0C0CFAFE
:100F400003F7BC4305FA03FC4CEA040491F803C020
:100F5000BCF1280F06D14FF0010C0CFA00FCC2F8CE
:100F600014C00AE091F803C0BCF1480F05D14FF05E
:100F7000010C0CFA00FCC2F810C0401C0828D1D3A8
:100F80001460B1F800C0BCF1FF0F34DD54680020DC
:100F90002EE000F1080C4FF0010808FA0CF3B1F84C
:100FA00000C00CEA03069E4221D183004FF00F0CD3
:100FB0000CFA03F7BC4305FA03FC4CEA040491F86D
:100FC00003C0BCF1280F05D100F1080C08FA0CF899
:100FD000C2F8148091F803C0BCF1480F07D100F1AA
:100FE000080C4FF0010808FA0CF8C2F81080401CF9
:100FF0000828CED35460BDE8F0810000F0B50A4661
:10100000002300240021002500F00046B6F1004F27
:1010100002D11D4EF16901E01B4E7168C0F303451A
:1010200083B200F44016B6F5401F08D121F070617C
:10103000154E766826F07066134F7E6012E000F45D
:101040008016B6F5801F06D1032606FA05F4A143E3
:1010500041F0706106E0460D360103FA06F6B14331
:1010600041F0706122B1460D360103FA06F63143B4
:1010700000F00046B6F1004F02D1034EF16101E0ED
:10108000014E7160F0BD00000000014002460020EA
:10109000D3680B400BB1012000E000207047416194
:1010A000704701617047000008B50121182000F069
:1010B000AFF840F20730ADF8000010208DF80300C3
:1010C00003208DF8020069460D48FFF70BFF4FF42F
:1010D000FC60ADF8000010208DF8030003208DF8AF
:1010E000020069460748FFF7FDFE4FF48C61054892
:1010F000FFF7D5FF4FF440710248FFF7D2FF08BD5C
:1011000000100140000C014010B54FF4A06000F049
:1011100039F810BD70B5002100230F22C47804B344
:10112000154C246804F4E064C4F5E064210AC1F1BC
:101130000403CA40447804FA03F18478144021433C
:1011400009010E4C0678A155047804F01F0501240E
:10115000AC4005786D11AD0005F1E025C5F8004102
:1011600009E0047804F01F050124AC40044D067822
:10117000761145F8264070BD0CED00E000E400E07B
:1011800080E100E002490143024A1160704700001B
:101190000000FA050CED00E001460020034A50680B
:1011A00020F44040084350607047000000100240A7
:1011B00029B1064A52690243044B5A6104E0034ACA
:1011C00052698243014B5A6170470000001002408F
:1011D00029B1064AD2690243044BDA6104E0034AAA
:1011E000D2698243014BDA6170470000001002406F
:1011F00029B1064A12690243044B1A6104E0034A0A
:1012000012698243014B1A617047000000100240CE
:1012100029B1064A92690243044B9A6104E0034AE9
:1012200092698243014B9A617047000000100240AE
:1012300029B1064AD2680243044BDA6004E0034A4B
:10124000D2688243014BDA60704700000010024010
:1012500030B500210022002400232D4D6D6805F0DB
:101260000C0121B1042905D0082923D105E0294D1D
:10127000056022E0274D05601FE0254D6D6805F4EF
:101280007012234D6D6805F48034022505EB9242FF
:101290001CB9214D554305600BE01D4D6D6805F4EB
:1012A00000351DB11C4D5543056002E0194D5543F5
:1012B000056002E0174D056000BF00BF144D6D686A
:1012C00005F0F0010909154D6B5C0568DD404560CE
:1012D0000F4D6D6805F4E061090A104D6B5C4568BF
:1012E000DD4085600A4D6D6805F46051C90A0B4DFB
:1012F0006B5C4568DD40C560054D6D6805F4404197
:10130000890B074D6B5CC568B5FBF3F5056130BD16
:101310000010024000127A0000093D000000002089
:101320001000002010B501210A48FFF7B8FE022185
:101330000848FFF7B4FE04210648FFF7B0FE4FF45B
:1013400080710448FFF7ABFE4FF400710148FFF7CE
:10135000A6FE10BD0010014010B500F001F810BD50
:101360000CB50020019000903348006840F48030B4
:101370003149086000BF3048006800F40030009038
:101380000198401C0190009818B90198B0F5A06F21
:10139000F1D12948006800F4003010B1012000901C
:1013A00001E0002000900098012843D12348006804
:1013B00040F01000214908600846006820F0030052
:1013C00008600846006840F0020008601A4840685B
:1013D000194948600846406848600846406840F43B
:1013E000806048600846406820F47C1048600846E9
:1013F000406840F4E81048600846006840F080709B
:10140000086000BF0C48006800F000700028F9D0A8
:101410000948406820F003000749486008464068D2
:1014200040F00200486000BF0348406800F00C0034
:101430000828F9D10CBD0000001002400020024035
:1014400010B51348006840F00100114908600846D3
:101450004068104908400E494860084600680E4937
:1014600008400B4908600846006820F480200860A6
:101470000846406820F4FE0048604FF41F00886072
:10148000FFF76AFF4FF000600449086010BD0000DC
:10149000001002400000FFF8FFFFF6FE08ED00E03C
:1014A00010B50121144800F0BCF818B3012112480E
:1014B00000F0A8F81148007860B980211048FFF7C3
:1014C000EEFD40210E48FFF7EAFD4FF480610C4825
:1014D000FFF7E5FD0B48007818B9012009490870AD
:1014E00008E000200749087040F222320721064830
:1014F000FFF70CFB10BD000000040040710000204D
:10150000000C014072000020140000207FB5054649
:101510000C4601210220FFF75BFEADF80850ADF844
:1015200004400020ADF80A00ADF8060001A90E48FD
:1015300000F0F4F8012211460B4800F083F81D205A
:101540008DF8000001208DF8010002208DF80200C6
:1015500001208DF803006846FFF7DCFD01210248F9
:1015600000F053F87FBD00000004004030B589B0A2
:1015700005460C4601210220FFF72AFE0121092021
:10158000FFF746FE01211C48FFF738FD2020ADF88B
:10159000200018208DF8230003208DF8220008A9D0
:1015A0001648FFF79FFC20211448FFF778FDADF89F
:1015B0001850ADF814400020ADF81A00ADF8160030
:1015C00005A90F4800F0AAF87020ADF8040001202A
:1015D000ADF806000220ADF80C0001A9084800F0A3
:1015E0003BF80821064800F089F80121044800F082
:1015F0000CF809B030BD000000081A00000C0140D2
:1016000000040040CA430282704721B1028842F0C0
:101610000102028004E002884FF6FE731A40028045
:10162000704730B50246002000230024158A05EAE1
:101630000103958905EA010413B10CB1012000E012
:10164000002030BD1AB183890B43838102E0838976
:101650008B4383817047000070B500240022002373
:10166000058C4FF6EF7635400584028C8388048B19
:1016700048F6FF752C404FF6FF452C400D884FF67D
:10168000FF7606EA05252C434FF6DF752A400D89C3
:1016900006EA05152A434D8806EA05152A43154D25
:1016A000A84202D0144DA8421DD14FF67F752A40A2
:1016B0004D894FF6FF7606EA05152A434FF6BF75AA
:1016C0002A408D8806EA05152A434FF6FF352B4040
:1016D0004FF2FF752B408D8906EA85052B43CD8996
:1016E00006EA85052B4383800483CD880587028421
:1016F00070BD0000002C0140003401400A4600216A
:10170000018B4FF2FF7319404FF6FF7303EA022378
:101710001943018370470187704700000022028847
:101720001D4B98420ED01D4B98420BD0B0F1804F0C
:1017300008D01B4B984205D01A4B984202D01A4B46
:10174000984204D14FF68F731A404B881A43174BB7
:10175000984207D0164B984204D04FF6FF431A40E8
:10176000CB881A4302808B8883850B8803850A4BBC
:1017700098420BD0094B984208D00E4B984205D0A6
:101780000D4B984202D00D4B984201D10B7A038643
:101790000123838270470000002C01400034014087
:1017A0000004004000080040000C00400010004011
:1017B0000014004000400140004401400048014046
:1017C00010B540F225514B4800F07FF900282ED08B
:1017D000484800F035FA4849087048484068474989
:1017E000086008468068486043480078886044483C
:1017F0000068401CE0B9084600680D2879D1084609
:1018000040680A2875D1084680683A2871D14FF49B
:1018100000713C48FFF745FC39480068401C3849D6
:101820000860354800783849354A1268885460E0C5
:10183000324840680D2851D1304880680A284DD17F
:101840002F480068401C2E4908602B4800782E491C
:101850002B4A126888542A480068401C2B490860AB
:101860002B480068002831D000F0C2FB29480178DD
:10187000204800F0EAF9284801781E4800F0E5F910
:10188000264800782649087026480078487026487F
:101890000078887025480078C8701F480078087163
:1018A0001C48007848712248007822490870224874
:1018B0000078487021480078887021480078C87006
:1018C0002048007808712048007848714FF0FF30B8
:1018D0000B49086000200D4908600AE008480068CC
:1018E000401C07490860044800780749044A126808
:1018F000885410BD003801402C000020300000202A
:1019000040000020001001407C0000204400002026
:101910003C000020600000206300002061000020E7
:101920004C0000205E000020620000205F000020CC
:101930006D000020520000206A0000206E00002090
:101940006B0000206F0000206C00002021B1828914
:1019500042F40052828104E082894DF6FF731A40FE
:101960008281704700B587B0284800F053F8012104
:101970000420FFF74DFC4FF40070ADF8180018205C
:101980008DF81B0003208DF81A0006A92048FFF7E8
:10199000A9FA4FF48060ADF8180004208DF81B0000
:1019A00006A91B48FFF79EFA01218803FFF730FCC8
:1019B0004FF4E13002900020ADF80C00ADF80E00BD
:1019C000ADF81000ADF814000C20ADF8120002A91B
:1019D0000E4800F0C9F8012240F225510B4800F0F2
:1019E0009EF801210948FFF7B1FF25208DF804007A
:1019F00002208DF8050001208DF806008DF8070003
:101A000001A8FFF787FB07B000BD000000380140C8
:101A10000008014010B504462048844209D1012144
:101A20008803FFF705FC00214FF48040FFF700FC1E
:101A300032E01B48844209D101214804FFF7D8FB5A
:101A400000214FF40030FFF7D3FB25E01548844216
:101A500009D101218804FFF7CBFB00214FF480203E
:101A6000FFF7C6FB18E01048844209D10121C804E1
:101A7000FFF7BEFB00214FF40020FFF7B9FB0BE09E
:101A80000A48844208D101210805FFF7B1FB002173
:101A90004FF48010FFF7ACFB10BD00000038014090
:101AA0000044004000480040004C0040005000400E
:101AB00002460020B1F5007F00D100BF13880B4023
:101AC0000BB1012000E00020704770B502460024F1
:101AD00000230025002040F66A16B14200D100BF65
:101AE000C1F3421501F01F03012606FA03F3012D8D
:101AF00002D19689334006E0022D02D1168A334086
:101B000001E0968A33400C12012606FA04F4168886
:101B1000344013B10CB1012000E0002070BDF0B5DD
:101B20000346002400260025002040F66A17B9422B
:101B300000D100BF1846C1F3421401F01F0601276F
:101B400007FA06F5012C01D10C3004E0022C01D17A
:101B5000103000E014301AB107682F43076002E02C
:101B60000768AF430760F0BD2DE9F04786B0054632
:101B70000E460024A24600BFA1460027B08900B14E
:101B800000BF2F462C8A4CF6FF700440F0880443B7
:101B90002C82AC894EF6F3100440B088318908439A
:101BA000718908430443AC81AC8A4FF6FF4004407E
:101BB000B0890443AC8201A8FFF74AFB1F48874263
:101BC00002D1DDF810A001E0DDF80CA0A88900F436
:101BD000004040B10AEBCA0000EB0A10316849002E
:101BE000B0FBF1F807E00AEBCA0000EB0A1031681D
:101BF0008900B0FBF1F86420B8FBF0F00401200983
:101C0000642101FB1089A88900F4004040B1322012
:101C100000EBC900B0FBF1F000F00700044308E05E
:101C2000322000EB09106421B0FBF1F000F00F004E
:101C300004432C8106B0BDE8F08700000038014065
:101C400001468888C0F30800704770B504460D4609
:101C50002946204600F008F800BF80212046FFF703
:101C600027FF0028F9D070BDC1F3080282807047B9
:101C700002E008C8121F08C1002AFAD17047704755
:101C8000002001E001C1121F002AFBD1704710B5EE
:101C900000F032F800F004F800F044F810BD000045
:101CA00000B58BB001210846FFF782FA0F48FFF715
:101CB00055F80F4800900F480190002002900A90BC
:101CC0004FF48070069080000790032003908020DE
:101CD0000590002004902020089000020990694699
:101CE0000248FFF7E1F80BB000BD00000800024019
:101CF0004C2401407400002008B501210420FFF7A6
:101D000087FA00208DF803000720ADF800000320BB
:101D10008DF8020069460248FFF7E4F808BD0000AC
:101D20000008014000B585B001214802FFF770FAB4
:101D30004FF40040FFF730FA2248FEF751FB002035
:101D4000009001208DF80500002003904FF46020E2
:101D5000029003208DF8100001208DF804006946E0
:101D60001848FEF77FFB0523012200211548FEF7E6
:101D7000A1FB0523022201211248FEF79BFB05234C
:101D8000032202210F48FEF795FB01210D48FEF7C3
:101D90001CFB01210B48FEF70DFB0A48FEF7E6FB92
:101DA00000BF0848FEF754FB0028FAD10548FEF7AB
:101DB000EDFB00BF0348FEF741FB0028FAD105B058
:101DC00000BD00000024014010B501210348FEF7CA
:101DD000D2FB01210248FEF7B5FF10BD00240140EF
:101DE000080002400146002021B1012905D0022946
:101DF00009D105E0054A108805E0044A508802E050
:101E0000024A908800BF00BF7047000074000020A5
:101E100008B500BF00BFFFF777F9FFF7A3FDFFF795
:101E200043F9FFF77FFAFFF732FFFFF7CDFF0020FE
:101E30000423082207210090FEF7AEFB00200423B4
:101E4000032211460090FEF733FC41F61F41632048
:101E5000FFF75CFB01215948FEF78DFB0121584833
:101E6000FEF770FFFFF750F9C72141F61F40FFF75B
:101E70007DFB40F262215348FFF74DFC9DE04FF49B
:101E800000715148FFF70BF90020FFF7ABFF4F49F6
:101E900008800120FFF7A6FF4D4908800220FFF7C8
:101EA000A1FF4C49088001214B48FFF7EFF800B132
:101EB00000E000BF04214848FFF7E8F800B100E067
:101EC00000BF4648007830B1454800784549487120
:101ED0004348407888713D480078424908700020A6
:101EE00048703A480088C0F303204870084640789C
:101EF0003749097801F00F0140EA0110394948706B
:101F000033480088C0F30710887032480078C870E2
:101F10000020C8712F480088C0F3032008713048A2
:101F2000FEF730FC2D490870FEF7A4FB2E4908701F
:101F300008460078002840D04FF480712248FFF70F
:101F4000AEF82A48007800F0080028B140F21B31B2
:101F50001C48FFF7E0FB04E040F262211948FFF75C
:101F6000DAFB2248007800F0200020B1402116481A
:101F7000FFF797F803E040211348FFF790F81B485C
:101F8000007800F0400020B180210F48FFF789F869
:101F900003E080210C48FFF782F81448007800F035
:101FA000100028B14FF480610748FFF77AF804E089
:101FB0004FF480610448FFF772F860E700240140A5
:101FC0000800024000040040000C014026000020F0
:101FD000280000202A0000200010014024000020DA
:101FE0001C00002014000020710000207000002060
:101FF0002DE9F84F00205D4908605D4F07F10408A6
:1020000007F1080907F10C04251D2E1D4FF0814131
:102010002068FEF7A9F84FF081410090FEF72EF9F5
:1020200083464FF08E41FEF7F7F88246FEF764F9DB
:10203000504908804FF081412868FEF795F84FF02D
:1020400081410090FEF71AF983464FF08E41FEF76A
:10205000E3F88246FEF750F9474908804FF0814186
:102060003068FEF781F84FF081410090FEF706F9E5
:1020700083464FF08E41FEF7CFF88246FEF73CF9DB
:102080003E4908803B480088000A3D4908703948AD
:1020900000783C49087038480088000A3A490870BE
:1020A000354800783949087034480088000A3849B2
:1020B0000870324800783749087037493868FEF7A9
:1020C00053F835490090FEF7D9F883464FF08E411A
:1020D000FEF7A2F88246FEF70FF9304908802E4934
:1020E000D8F80000FEF740F82B490090FEF7C6F83C
:1020F00083464FF08E41FEF78FF88246FEF7FCF8DC
:10210000274908802449D9F80000FEF72DF8224914
:102110000090FEF7B3F883464FF08E41FEF77CF84F
:102120008246FEF7E9F81F4908801C480088000A2B
:102130001D490870194800781C4908701848008823
:10214000000A1B490870164800781A49087015489B
:102150000088000A1849087012480078174908706A
:10216000012002490860BDE8F88F00003C00002013
:1021700087000020580000205A0000205C0000204A
:102180005E000020610000205F000020620000204F
:102190006000002063000020000075436400002000
:1021A00066000020680000206A0000206D0000200A
:1021B0006B0000206E0000206C0000206F000020EB
:1021C000E0210008000000207C000000701C0008D6
:1021D0005C2200087C000020CC040000801C000869
:1021E00000000000010203040102030406070809BD
:1021F00002040608000000000000000000000000CB
:1022000000000000000000000000000011000000BD
:1022100001000000020000000300000001000000B7
:10222000FFFFFFFF000000000000000000000000B2
:102230000000000000000000010001000300444411
:102240004433333300000000000022222211111118
:0C22500000000000000000000000000082
:0400000508000131BD
:00000001FF
