:020000040800F2
:1000000038B4002071250008410A0008430A00089E
:10001000470A00084B0A00084F0A000800000000C9
:10002000000000000000000000000000530A00086B
:10003000550A000800000000570A0008590A000885
:100040008B2500088B2500088B2500088B250008D0
:100050008B2500088B2500088B2500088B250008C0
:100060008B2500088B2500088B2500088B250008B0
:100070008B2500088B2500088B2500088B250008A0
:100080008B2500088B2500088B2500088B25000890
:100090008B2500088B2500088B2500088B25000880
:1000A0008B2500088B2500088B2500088B25000870
:1000B0008B2500081D1500088B2500088B250008DE
:1000C0008B2500088B2500088B2500088B25000850
:1000D0008B250008552300087B2400088B25000889
:1000E0008B2500088B2500088B2500088B25000830
:1000F0008B2500088B2500088B2500088B25000820
:100100008B2500088B2500088B2500088B2500080F
:100110008B2500088B2500088B2500088B250008FF
:100120008B2500088B2500088B2500088B250008EF
:1001300000F002F800F05AF80AA090E8000C82449F
:100140008344AAF10107DA4501D100F04FF8AFF27C
:10015000090EBAE80F0013F0010F18BFFB1A43F0A5
:10016000010318479C7D0000BC7D00000A444FF04D
:10017000000C10F8013B13F0070408BF10F8014B06
:100180001D1108BF10F8015B641E05D010F8016B4B
:10019000641E01F8016BF9D113F0080F1EBF10F8AF
:1001A000014BAD1C0C1B09D16D1E58BF01F801CBD2
:1001B000FAD505E014F8016B01F8016B6D1EF9D555
:1001C0009142D6D37047000000230024002500266A
:1001D000103A28BF78C1FBD8520728BF30C148BFAA
:1001E0000B6070471FB51FBD10B510BD07F00DFEA9
:1001F0001146FFF7F7FF00F009F807F02BFE03B4F4
:10020000FFF7F2FF03BC02F03FF8000094B0FBA13F
:1002100003C9CDE91201FBA207CA0AAB07C3142226
:10022000FBA105A807F032FDFEA000680490FEA027
:100230000068039001F0B8FF02F020F84FF4165068
:1002400002F03AF84FF4E13002F0C7F800F0F2FDA6
:1002500040F21F31312001F035F901F08CF907F03F
:10026000ADFAF24801F002FF002004230822072122
:10027000009000F002FE00200423082207210090D5
:1002800000F05FFE83E3EA480078012804D1612290
:10029000052103A800F075FDE6480078012804D187
:1002A0006B22052103A800F06CFDE34800780128CB
:1002B00004D16622052103A800F063FDDF48007821
:1002C000012804D16722052103A800F05AFDDC486B
:1002D0000078012804D16822052103A800F051FD0F
:1002E000D8480078012804D16922052103A800F02C
:1002F00048FDD5480078012804D17522052103A8BE
:1003000000F03FFDD1480078012804D17622052174
:1003100003A800F036FDCE48006801287ED1642095
:1003200001F07FFF0020CA490860C1480078012819
:1003300014D10020BE49087041220421C54800F0B4
:1003400020FDC5480068C54909680423C14ACDE9B4
:100350000010C3A10DA800F031FD04E061220521C9
:1003600004A800F00EFDBF480078012813D100203A
:10037000BC49087042220421BB4800F002FDB64887
:100380000068B64909680423B74ACDE90010B7A14F
:100390000DA800F013FDAD480078012814D100200D
:1003A000AA49087056220521B14800F0EAFCAA4883
:1003B0000068AA4909680523AD4ACDE90010ADA13E
:1003C0000DA800F0FBFC04E07622052104A800F053
:1003D000D8FCA9480078012813D10020A64908704C
:1003E00043220721A54800F0CCFC9B4800689B49AC
:1003F00009680723A14ACDE90010A1A10DA800F0CA
:10040000DDFCA0480078012815D100209D49087026
:10041000442205219C4800F0B4FC00E0ADE28E4887
:1004200000688E4909680523974ACDE9001097A115
:100430000DA800F0C3FC96480078012813D10020D5
:100440009349087045220721924800F09AFC82489F
:1004500000688249096807238E4ACDE900108EA101
:100460000DA800F0ABFC74480078012814D10020DE
:100470007149087046220821884800F082FC7648BD
:100480000068764909680823844ACDE9001084A1F0
:100490000DA800F093FC04E06622052104A800F0FA
:1004A00070FC66480078012814D100206349087068
:1004B000472208217B4800F064FC674800686749D0
:1004C00009680823774ACDE9001077A10DA800F04C
:1004D00075FC04E06722052104A800F052FC58488E
:1004E0000078012814D100205549087048220821BD
:1004F0006E4800F046FC58480068584909680823CF
:100500006A4ACDE900106AA10DA800F057FC04E08A
:100510006822052104A800F034FC4A48007801282C
:1005200014D100204749087049220821614800F091
:1005300028FC494800684949096808235D4ACDE913
:1005400000105DA10DA800F039FC04E0692205212E
:1005500004A800F016FC59480078012813D10020A7
:10056000564908704A220521554800F00AFC3A48CD
:1005700000683A4909680523514ACDE9001051A1A4
:100580000DA800F01BFC2B480078012814D1002096
:10059000284908704B2206214B4800F0F2FB2E48F8
:1005A00000682E4909680623474ACDE9001047A193
:1005B0000DA800F003FC04E06B22052104A800F064
:1005C000E0FB43480078012813D10020404908701F
:1005D0004C2208213F4800F0D4FB1F4800681F4907
:1005E000096808233B4ACDE900103BA10DA800F0A3
:1005F000E5FB3A480078012872D172E03232333498
:100600003536373831372D30362D30360000000082
:1006100031372D30362D30362F30302D30302E748E
:10062000787400003100000030000000EE0000206F
:10063000C5000020CF000020CA000020CB00002011
:10064000CC000020CD000020D9000020DB000020DD
:10065000E800002014000020700200206402002046
:1006600033303000C6000020180000203330310045
:100670001C00002034303100C70000202100002081
:1006800033303200C800002028000020333033000F
:10069000C90000202D000020333034003400002039
:1006A000333035003C000020333036004400002059
:1006B000333037004C00002033303800CE000020AB
:1006C000540000203330390059000020333130000D
:1006D000D00000205F00002033313100DC0000201A
:1006E00013E00020AA49087057220821A94800F009
:1006F00048FBA9480068A94909680823A54ACDE92B
:100700000010A7A10DA800F059FBA6480078012809
:1007100013D10020A34908704D220821A24800F0FF
:1007200030FB9D4800689D49096808239E4ACDE931
:1007300000109EA10DA800F041FB9D480078012803
:1007400013D100209A4908704E220521994800F0E3
:1007500018FB91480068914909680523954ACDE93D
:10076000001095A10DA800F029FB944800780128FD
:1007700013D100209149087050220521904800F0C3
:1007800000FB854800688549096805238C4ACDE946
:1007900000108CA10DA800F011FB8B4800780128F7
:1007A00013D100208849087051220621874800F0A3
:1007B000E8FA79480068794909680623834ACDE94F
:1007C000001083A10DA800F0F9FA824800780128F2
:1007D00013D100207F490870522206217E4800F084
:1007E000D0FA6D4800686D49096806237A4ACDE958
:1007F00000107AA10DA800F0E1FA794800780128EC
:1008000013D100207649087053220421754800F066
:10081000B8FA61480068614909680423714ACDE962
:10082000001071A10DA800F0C9FA704800780128E5
:1008300013D100206D490870542208216C4800F043
:10084000A0FA55480068554909680823684ACDE967
:10085000001068A10DA800F0B1FA674800780128DF
:1008600013D100206449087059220821634800F020
:1008700088FA494800684949096808235F4ACDE970
:1008800000105FA10DA800F099FA5E4800780128D9
:1008900013D100205B490870402208215A4800F01B
:1008A00070FA3D4800683D4909680823564ACDE979
:1008B000001056A10DA800F081FA554800780128D3
:1008C00013D100205249087023220821514800F01A
:1008D00058FA314800683149096808234D4ACDE982
:1008E00000104DA10DA800F069FA4C4800780128CD
:1008F00013D100204949087024220821484800F0FB
:1009000040FA25480068254909680823444ACDE98A
:10091000001044A10DA800F051FA434800780128C6
:1009200013D1002040490870252208213F4800F0DB
:1009300028FA194800681949096808233B4ACDE993
:1009400000103BA10DA800F039FA3A4800780128C0
:1009500014D100203749087055220421364800F090
:1009600010FA0D4800680D4909680423324ACDE9A0
:10097000001032A10DA800F021FA04E07522052133
:1009800004A800F0FEF900BF642001F04AFC7AE4FC
:10099000DC000020670000207002002064020020BC
:1009A00034313200D10000206F000020333230009B
:1009B000D20000207700002033323100D400002024
:1009C0007C00002033323200D5000020810000205E
:1009D00033323300D6000020870000203332340049
:1009E000D70000208D00002033323500D8000020D1
:1009F0009100002033343000DA0000209D000020F8
:100A000033363000DD000020A500002033323900ED
:100A1000DE000020AD00002033324100DF00002066
:100A2000B500002033324200E0000020BD0000206D
:100A300033324300D90000209900002033353000C4
:100A4000704700BFFEE700BFFEE700BFFEE700BF44
:100A5000FEE7704770477047704700000CB50020F4
:100A6000019000909248006840F4803090490860FE
:100A700000BF8F48006800F4003000900198401CCF
:100A80000190009818B90198B0F5A06FF1D188488D
:100A9000006800F4003010B10120009001E0002057
:100AA0000090009801285CD18248006840F0100056
:100AB000804908600846006820F003000860084686
:100AC000006840F002000860794840687849486052
:100AD0000846406848600846406840F480604860C6
:100AE0000846C06A744908407149C8620846C06A2D
:100AF000724908436E49C8620846006840F0806049
:100B0000086000BF6A48006800F000600028F9D063
:100B10006748406820F47C10654948600846406892
:100B200040F4E81048600846006840F080700860B3
:100B300000BF5F48006800F000700028F9D05C48F2
:100B4000406820F003005A4948600846406840F079
:100B50000200486000BF5648406800F00C000828BA
:100B6000F9D10CBD10B5FFF779FF10BD10B5504895
:100B7000006840F001004E4908600846406850494E
:100B800008404B494860084600684E4908404849BB
:100B900008600846006820F4802008600846406825
:100BA00020F4FE0048600846006820F0A05008606D
:100BB0004FF47F0088600020C862FFF7D3FF4FF03A
:100BC00000604149086010BDF0B5002100200023FD
:100BD0000024002200250026354F7F6807F00C0115
:100BE00021B1042908D008294BD10BE0374FDFF899
:100BF000E0C0CCF800704AE0364FDFF8D4C0CCF843
:100C0000007044E02A4F7F6807F47010284F7F6817
:100C100007F48033800C0D2801D0801C00E00620F2
:100C200033B92D4F4743DFF8A8C0CCF8007027E058
:100C30001F4FFF6A07F480341D4FFF6A07F00F074C
:100C40007A1C44B9234FB7FBF2F74743DFF880C063
:100C5000CCF8007014E0164FFF6AC7F303177D1C31
:100C6000134FFF6AC7F30327BE1C1A4FB7FBF5F7F4
:100C70007743B7FBF2F74743DFF854C0CCF8007076
:100C800005E0124FDFF848C0CCF8007000BF00BF8D
:100C9000074F7F68C7F30317DFF840C01CF8071041
:100CA0000B4F3F68CF40DFF828C0CCF80070F0BD94
:100CB000001002400020024000F0FEFF4406010048
:100CC0000000FFF0FFFFF6FE08ED00E000127A00E2
:100CD0000000002040787D0100093D000400002054
:100CE000F0B50D461646C71700EB17774FF00A0C04
:100CF000BCEB271F07DD0446C71700EB17773F1132
:100D00003037FAB206E00446C71700EB17773F11F9
:100D10003737FAB20446C71700EB17773F11A0EB3D
:100D20000717F9B20A2903DA01F13004E3B202E04D
:100D300001F13704E3B22A703370F0BDF0B5044618
:100D40000D46DDE905670021002005E015F800C02B
:100D500004F801C0491C401C9042F7DB002002E06F
:100D60006354491C401C0128FADB002005E016F8FA
:100D700000C004F801C0491C401CB842F7DB6354B2
:100D8000F0BD2DE9FC4106460C46174679208DF84A
:100D900000008DF80170002504E0715DA81C0DF8BD
:100DA00000106D1CA542F8DB7A21A01C0DF8001084
:100DB000E11C684600F0FBFBBDE8FC812DE9F04337
:100DC0008DB006460F4690461D46DDF85090032034
:100DD000202313223146CDE9007003A8FFF7AEFFB0
:100DE00015AB182203A9484605F051FA00240EE07D
:100DF000012303EB44030DF1240C03EB0C0209ABBC
:100E000003EB440118F80400FFF76AFF641CAC42CE
:100E1000EEDB6A0015AB09A9484605F038FA15ABB8
:100E2000022203A1484605F032FA0DB0BDE8F08376
:100E30000D0A000008B50121102001F0F2FF0F207B
:100E4000ADF8000010208DF8030003208DF802009B
:100E50006946044801F07AFC0F21024801F023FDA5
:100E600008BD0000001001400246002002E00B5CBB
:100E70001354401C0828FADB70472DE9F04188B074
:100E800004460D4616461F46DDF838800121042031
:100E900001F0C7FF0121480601F0D0FF4FF4805058
:100EA000ADF81C0003208DF81E0018208DF81F00DF
:100EB00007A9FE4801F04AFC4FF40060ADF81C00A1
:100EC00048208DF81F0007A9F84801F03FFC0020DA
:100ED0008DF816008DF817008DF8180001208DF898
:100EE000190000208DF81A008DF81B008DF8128073
:100EF0008DF813408DF814608DF81550ADF8107012
:100F000004A9EB4802F00BF800208DF80A008DF8D8
:100F10000B0001208DF80C000020ADF80000ADF8AA
:100F20000200ADF80400ADF80600ADF8080001209D
:100F30008DF80D00684602F07CF8002008B0BDE88E
:100F4000F0812DE9F04188B004460D4616461F4653
:100F5000DDF838800121082001F063FF01218806B7
:100F600001F06CFF4FF40050ADF81C0003208DF829
:100F70001E0018208DF81F0007A9CE4801F0E6FBDF
:100F80004FF48050ADF81C0048208DF81F0007A9D1
:100F9000C84801F0DBFB00208DF816008DF8170023
:100FA0008DF8180001208DF8190000208DF81A0026
:100FB0008DF81B008DF812808DF813408DF81460A9
:100FC0008DF81550ADF8107004A9BB4801F0A7FFCB
:100FD0000E208DF80A0000208DF80B0001208DF8FE
:100FE0000C000020ADF80000ADF80200ADF80400E0
:100FF000ADF80600ADF8080001208DF80D00684638
:1010000002F017F8002008B0BDE8F0812DE9F041AA
:1010100086B00746884615460024019712200290A4
:1010200000208DF80C008DF80D008DF80E5000BFDB
:1010300006E018F804100DF10F000155601C84B291
:10104000AC42F6DB01A99A4802F0E2F80646002419
:1010500001E0601C84B23146954802F071F918B97C
:1010600040F6FF708442F4DB40F6FF70844203DBFD
:10107000012006B0BDE8F0810020FAE72DE9F0413B
:1010800086B0074688461546002401971220029034
:1010900000208DF80C008DF80D008DF80E5000BF6B
:1010A00006E018F804100DF10F000155601C84B221
:1010B000AC42F6DB01A9804802F0AAF806460024FB
:1010C00001E0601C84B231467B4802F039F918B95E
:1010D00040F6FF708442F4DB40F6FF70844203DB8D
:1010E000012006B0BDE8F0810020FAE710B586B017
:1010F000044600216E4802F003FA10B9002006B041
:1011000010BD01AA00216A4802F077F90198B0F5F4
:10111000407F07D10DF10F016848FFF7A5FE0120C0
:101120006749087040F201410198884207D10DF1EA
:101130000F016448FFF798FE012063490870019889
:10114000B0F5447F07D10DF10F016048FFF78CFE29
:1011500001205F49087040F211310198884207D19F
:101160000DF10F015B48FFF77FFE01205A4908701F
:1011700040F212410198884207D10DF10F01574802
:10118000FFF772FE0120564908700198B0F5487FBC
:1011900007D10DF10F015348FFF766FE01205249B8
:1011A000087040F221310198884207D10DF10F01FA
:1011B0004E48FFF759FE01204D49087040F2223198
:1011C0000198884207D10DF10F014A48FFF74CFE04
:1011D00001204949087040F223310198884207D123
:1011E0000DF10F014548FFF73FFE0120444908700B
:1011F0000198B0F5497F07D10DF10F014148FFF784
:1012000033FE0120404908700198B0F5507F07D1A6
:101210000DF10F013D48FFF727FE01203C49087002
:101220000198B0F5547F07D10DF10F013948FFF750
:101230001BFE0120384908709DF80E005FE710B5CD
:1012400086B0044600211C4802F05AF910B900206B
:1012500006B010BD01AA0021174802F0CEF801988F
:10126000B0F5407F07D10DF10F011448FFF7FCFDE9
:1012700001201349087040F201310198884207D1DA
:101280000DF10F012548FFF7EFFD012024490870FB
:1012900040F202310198884207D10DF10F01214837
:1012A000FFF7E2FD0120204908703FE000080140FF
:1012B00000640040000C0140006800401400002061
:1012C000C50000201C000020DB0000205900002089
:1012D000CF0000205F000020D00000206700002029
:1012E000DC0000206F000020D100002077000020EB
:1012F000D20000207C000020D400002081000020CB
:10130000D500002087000020D6000020910000209A
:10131000D800002099000020D900002018000020EB
:10132000C600002021000020C700002040F2033149
:101330000198884207D10DF10F014A48FFF794FD4B
:101340000120494908700198B0F5417F07D10DF19E
:101350000F014648FFF788FD01204549087040F21B
:1013600025310198884207D10DF10F014148FFF75F
:101370007BFD01204049087040F2263101988842E7
:1013800007D10DF10F013D48FFF76EFD01203C49EB
:10139000087040F227310198884207D10DF10F0102
:1013A0003848FFF761FD0120374908700198B0F512
:1013B0004A7F07D10DF10F013448FFF755FD012099
:1013C0003349087040F209310198884207D10DF184
:1013D0000F013048FFF748FD01202F49087040F207
:1013E00006310198884207D10DF10F012B48FFF714
:1013F0003BFD01202A49087040F2293101988842BA
:1014000007D10DF10F012748FFF72EFD01202649D6
:10141000087040F22A310198884207D10DF10F017E
:101420002248FFF721FD01202149087040F22B31AD
:101430000198884207D10DF10F011E48FFF714FDF6
:1014400001201D4908700198B0F54B7F07D10DF1BF
:101450000F011A48FFF708FD0120194908709DF88F
:101460000E00F5E628000020C80000202D00002016
:10147000C900002034000020CA0000203C000020E9
:10148000CB00002044000020CC0000204C000020B5
:10149000CD00002054000020CE0000209D00002040
:1014A000DA000020A5000020DD000020AD000020B3
:1014B000DE000020B5000020DF000020BD0000207D
:1014C000E00000207FB505460C460121022001F016
:1014D000B5FCADF80850ADF804400020ADF80A00A6
:1014E000ADF8060001A91C4802F0D0FC012211460B
:1014F000194803F042F81D208DF8000000208DF8F7
:1015000001008DF8020001208DF80300684601F00B
:1015100054F80121104803F015F87FBD7CB5012176
:101520000D4803F0D8FAA8B101210B4803F0E4FA02
:1015300072B66846FFF7DAFD054615B10120074986
:1015400008606846FFF77BFE044614B1012003499A
:10155000086062B67CBD000000040040E800002086
:1015600010B54FF48061344801F083F908B90120C7
:1015700010BD0020FCE708B50121082001F051FC56
:101580006020ADF8000010208DF8030003208DF8D6
:1015900002006946294801F0D9F84FF44070274904
:1015A000143108606021254801F07FF908BD70B54D
:1015B00005460E4600BFFFF7D3FF0028FBD10220EF
:1015C0001F49486100240EE0295D1E4802F0C2FA5E
:1015D00000BF80211B4802F02BFB0128F9D1042019
:1015E00000F01FFE641CB442EEDB022014490861C7
:1015F00070BD70B505460E4600BFFFF7B1FF00286D
:10160000FBD102200E49486100240EE0295D0D48FF
:1016100002F0A0FA00BF80210A4802F009FB01286D
:10162000F9D1042000F0FDFD641CB442EEDB022081
:101630000349086170BD000000080140000C014032
:1016400000100140004400400A2802DD0A2290FBFD
:10165000F2F000F130020A70704710B504462046DF
:1016600000F08CFA10BD10B5382000F0F2FA10BD71
:1016700010B5002000F0EDFA10BD08B501210420DE
:1016800001F0CFFB1020ADF800008DF8030003201F
:101690008DF802006946F64801F058F81021F44828
:1016A00001F001F900F091FA0120F249086008BD4B
:1016B00010B50120EF490860FF20FFF7CEFF10BDF5
:1016C00010B5002400BFFF20FFF7C7FFFF2801D19E
:1016D000002010BD641C6FF07F408442F3D30120D2
:1016E000F7E710B50020E3490860FFF7E9FF08B904
:1016F000002010BDFFF7DCFF0120FAE770B50546BA
:101700004FF6FF7401E0601E84B2FF20FFF7A5FFD3
:10171000A84201D0002CF6D10CB9FF2070BD0020EA
:10172000FCE770B504460D46FE20FFF7E7FF08B161
:10173000012070BD04E0FF2000F020FA2070641C3E
:101740002800A5F101018DB2F5D1FF20FFF785FF3B
:10175000FF20FFF782FF0020EBE770B506460D463D
:10176000FFF7AEFF08B1012070BD2846FFF775FFF7
:10177000FD2D19D0002404E0305D00F0FFF9601C5D
:1017800084B2B4F5007FF7DBFF20FFF766FFFF2090
:10179000FFF763FFFF20FFF760FF044604F01F0020
:1017A000052801D00220DFE70020DDE72DE9F04128
:1017B00005460C4617464FF00008FFF779FFFFF784
:1017C00090FF10B1FF20BDE8F08145F04000FFF729
:1017D00044FF200EFFF741FFC4F30740FFF73DFF32
:1017E000C4F30720FFF739FFE0B2FFF736FF3846B2
:1017F000FFF733FF0C2D02D1FF20FFF72EFF4FF034
:101800001F0800BFFF20FFF728FF064606F08000F4
:1018100030B15FEA0800A8F1010101F0FF08F1D141
:101820003046D0E770B50546012200210A20FFF7B7
:10183000BDFF044624B910212846FFF772FF044675
:10184000FFF736FF0CB1012070BD0020FCE770B53A
:101850000546012200210920FFF7A8FF044624B90C
:1018600010212846FFF75DFF0446FFF721FF0CB16A
:10187000012070BD0020FCE77FB56846FFF7E7FF59
:1018800010B1002004B070BD9DF8000000F0C00051
:10189000402809D19DF809009DF8081000EB0120AF
:1018A000401C84B2A50220E09DF8050000F00F0066
:1018B0009DF80A1000EBD1109DF8091001F003010A
:1018C00000EB4100861C9DF8080080119DF8071070
:1018D00000EB81009DF8061001F0030100EB812070
:1018E000441CA6F1090004FA00F52846CAE7F8B539
:1018F000FFF7C3FEFFF7B7FE002504E0FF20FFF768
:10190000ACFE681C85B24A2DF8DB142600BF952278
:1019100000210846FFF74AFF0446012C04D030009E
:10192000A6F101018EB2F2D1002053490870012CBA
:101930004AD187224FF4D5710820FFF737FF0128DD
:1019400047D1002506E0FF20FFF787FE0DF80500D0
:10195000681C85B2042DF6DB9DF80200012879D1C0
:101960009DF80300AA2875D14FF6FE7600BF01222C
:1019700000213720FFF71AFF012291072920FFF7E6
:1019800015FF044624B13000A6F101018EB2EED15C
:10199000002E5FD0012200213A20FFF707FF002828
:1019A00058D1002506E0FF20FFF757FE0DF805008F
:1019B000681C85B2042DF6DB9DF8000000F04000A5
:1019C00018B106202C49087044E004202A49087008
:1019D00040E0012200213720FFF7E8FE012200212C
:1019E0002920FFF7E3FE0446012C17DC02202249E0
:1019F00008704FF6FE7600BF012200213720FFF766
:101A0000D5FE012200212920FFF7D0FE0446BCB1FB
:101A10003000A6F101018EB2EED111E0012016498D
:101A200008704FF6FE7600BF012200211046FFF736
:101A3000BDFE044624B13000A6F101018EB2F3D1FF
:101A40002EB1012251021020FFF7B0FE10B100208C
:101A500009490870FFF72CFEFFF70AFE06480078D8
:101A600008B10020F8BD0CB12046FBE7AA20F9E739
:101A70000008014090012142EC0000202DE9F041D6
:101A800006460F4615463C480078062800D07F02DF
:101A9000012D0CD1012239461120FFF787FE0446A3
:101AA000FCB969023046FFF73CFE044619E001220A
:101AB00039461220FFF77AFE044600BF4FF400714A
:101AC0003046FFF72EFE044606F50076681EC0B2CB
:101AD000050001D0002CF1D0012200210C20FFF7DD
:101AE00065FEFFF7E5FD2046BDE8F0812DE9F041F8
:101AF00006460F46154620480078062800D07F028B
:101B0000012D0CD1012239461820FFF74FFE044663
:101B10006CBBFE213046FFF720FE044627E0164846
:101B20000078012809D0012200213720FFF73EFE6E
:101B3000012229461720FFF739FE012239461920D4
:101B4000FFF734FE044694B900BFFC213046FFF78E
:101B500004FE044606F50076681EC0B2050001D0FA
:101B6000002CF2D0FD210020FFF7F7FD0446FFF71F
:101B70009FFD2046BDE8F081EC00002070B50546D1
:101B8000002405E0601CC4B2C82C01DD002070BD3B
:101B90000221394803F024F90028F3D029463648B9
:101BA00003F0CBF8002405E0601CC4B2C82C01DDB2
:101BB0000020ECE70121304803F012F90028F3D0AF
:101BC0002D4803F0BCF8C0B2E1E700B587B00121B1
:101BD000042001F026F90121080301F022F9E02098
:101BE000ADF8180018208DF81B0003208DF81A009E
:101BF00006A9224800F0AAFDE021204800F053FE8B
:101C00000020ADF804004FF48270ADF8060000200B
:101C1000ADF808000220ADF80A000120ADF80C0074
:101C20004002ADF80E003820ADF810000020ADF8ED
:101C300012000720ADF8140001A90F4802F086FF3A
:101C400001210D4803F048F8FF20FFF797FF07B088
:101C500000BD10B50446084800884FF6C77108401B
:101C60000549088008460088204308800121024871
:101C700003F032F810BD00000030014000080140C0
:101C800008B50220ADF8000010208DF803000320F5
:101C90008DF802006946FE4800F058FD08BD08B501
:101CA0000220ADF8000028208DF803006946F848AE
:101CB00000F04CFD08BD08B50121092001F0B1F884
:101CC0000121F44800F013FE1820ADF800001020A8
:101CD0008DF8030003208DF802006946EC4800F0FF
:101CE00035FD0220ADF8000014208DF80300694690
:101CF000E74800F02BFD08BD70B504460025FFF74E
:101D0000BFFF0821E24800F0D0FD00BF1BE0082122
:101D1000DF4800F0CAFDFFF7B3FF022000F05DFAD4
:101D200004F0010020B10221D94800F0BCFD03E01D
:101D30000221D74800F0B9FD0821D54800F0B3FDD5
:101D40006410681CC5B2082DE1DB70BD70B5054696
:101D50000C461021CE4800F0A8FD0821CC4800F028
:101D6000A4FD1021CA4800F09EFD2846FFF7C4FFDD
:101D70002046FFF7C1FF1021C54800F096FD08215D
:101D8000C34800F092FD70BD70B5064600250024E2
:101D90001021BF4800F089FD0821BD4800F085FDF5
:101DA000012000F01AFA1021B94800F07CFD032050
:101DB00000F013FA3046FFF79FFFFFF770FF00BFF8
:101DC00015E00221B24800F054FD012801D144F091
:101DD00080040821AE4800F066FD032000F0FDF904
:101DE0000821AB4800F061FD6410681CC5B2082DE5
:101DF000E7DB012000F0F1F90821A54800F053FDD0
:101E00001021A34800F051FD0221A14800F04DFD32
:101E1000204670BD70B5044600218E20FFF796FF66
:101E200020780A2190FBF1F201FB120120780A22AE
:101E300090FBF2F001EB0010C5B229468020FFF7BD
:101E400085FF60780A2190FBF1F201FB12016078B6
:101E50000A2290FBF2F001EB0010C5B22946822065
:101E6000FFF774FFA0780A2190FBF1F201FB120149
:101E7000A0780A2290FBF2F001EB0010C5B22946CF
:101E80008420FFF763FFE0780A2190FBF1F201FB69
:101E90001201E0780A2290FBF2F001EB0010C5B2CB
:101EA00029468620FFF752FF20790A2190FBF1F2A4
:101EB00001FB120120790A2290FBF2F001EB0010E5
:101EC000C5B229468820FFF741FF60790A2190FBBF
:101ED000F1F201FB120160790A2290FBF2F001EBB2
:101EE0000010C5B229468A20FFF730FFE0880A219A
:101EF00090FBF1F201FB1201E0880A2290FBF2F064
:101F000001EB0010C5B229468C20FFF71FFF80218E
:101F10008E20FFF71BFF002070BD2DE9F041044625
:101F20008120FFF731FF0546C01705EB1070001147
:101F3000A5EB00178120FFF727FF0646C01706EB29
:101F40001070001100EB800007EB40002070832030
:101F5000FFF71AFF0546C01705EB10700011A5EB3F
:101F600000178320FFF710FF0646C01706EB10701E
:101F7000001100EB800007EB400060708520FFF748
:101F800003FF0546C01705EB10700011A5EB001705
:101F90008520FFF7F9FE0646C01706EB107000110A
:101FA00000EB800007EB4000A0708720FFF7ECFEFD
:101FB0000546C01705EB10700011A5EB0017872030
:101FC000FFF7E2FE0646C01706EB1070001100EBAB
:101FD000800007EB4000E0708920FFF7D5FE054642
:101FE000C01705EB10700011A5EB00178920FFF753
:101FF000CBFE0646C01706EB1070001100EB800008
:1020000007EB400020718B20FFF7BEFE0546C0178E
:1020100005EB10700011A5EB00178B20FFF7B4FE45
:102020000646C01706EB1070001100EB800007EBAE
:10203000400060718D20FFF7A7FE0546C01705EB35
:1020400010700011A5EB00178D20FFF79DFE0646CE
:10205000C01706EB1070001100EB800007EB40008A
:1020600000F5FA60E0800020BDE8F0812DE9F04144
:102070000646FFF720FE80218E20FFF767FEC12075
:10208000FFF782FE0446C01704EB1070001103E056
:10209000000C014000023000A4EB0017C120FFF744
:1020A00073FE0546C01705EB1070001100EB8000B1
:1020B00007EB4000012802D10020BDE8F08100219B
:1020C0008E20FFF743FE0121C020FFF73FFE802155
:1020D0008E20FFF73BFE3046FFF79CFE0020ECE72A
:1020E00010B504462F48FFF718FF3220207030202B
:1020F00060703120A0703820E0702F2020712948B6
:1021000000790A2190FBF1F03030607125480079A8
:1021100090FBF1F201FB12003030A0712F20E07132
:102120002048C07890FBF1F0303020721D48C07814
:1021300090FBF1F201FB1200303060722020A0729F
:102140001848807890FBF1F03030E07215488078C4
:1021500090FBF1F201FB1200303020733A206073E3
:102160001048407890FBF1F03030A0730D48407873
:1021700090FBF1F201FB12003030E0733A20207442
:102180000848007890FBF1F0303060740548007822
:1021900090FBF1F201FB12003030A0740A20E074D1
:1021A000002010BDEE00002010B56FF0040000F01C
:1021B0004EFA2E4800682E49B0FBF1F02D49087008
:1021C0000846007800EB4001C1EBC0104FF6FF71EC
:1021D00001EAC0002849088010BD0146254A12784E
:1021E0004A434FF0E0235A6100229A611A4612696D
:1021F00042F001021A6100BF4FF0E022106900F0C6
:1022000001021AB100F48032002AF5D04FF0E0222A
:10221000126922F001024FF0E0231A6100229A6154
:1022200070470146144A12884A434FF0E0235A612E
:1022300000229A611A46126942F001021A6100BF37
:102240004FF0E022106900F001021AB100F4803270
:10225000002AF5D04FF0E022126922F001024FF07F
:10226000E0231A6100229A617047000000000020FC
:1022700000127A00F6000020F800002010B54FF49C
:10228000A06000F095F910BD014600BF704700BF87
:10229000B04A128802F04002002AF9D0C2B2AD4B17
:1022A0001B1D1A80704710B5C821AB4805F020FDF2
:1022B0000020AA49088010BD10B586B0044601214F
:1022C00044F2040000F0ADFD4FF40070ADF81400CE
:1022D00003208DF8160018208DF8170005A9A048D6
:1022E00000F034FA4FF48060ADF8140004208DF84B
:1022F000170005A99A4800F029FA25208DF800005A
:1023000003208DF801008DF8020001208DF80300F4
:10231000684600F052F901940020ADF80800ADF8CD
:102320000A00ADF80C00ADF810000C20ADF80E005E
:1023300001A9884801F015FB012240F2255185488A
:1023400001F0A7FB0121834801F097FBFFF7ABFFEA
:1023500006B010BD10B540F225517E4801F07EFC5C
:10236000002839D07B4801F0F9FBC4B2242C02D1FB
:1023700000207A490880794801880088401C774A03
:10238000108075484454007824281ED17248007982
:102390004D281AD170484079432816D10A2C14D1FF
:1023A0005021704805F0A4FC6C4802886A496D48C9
:1023B00005F027FC01206B4981F850000020674997
:1023C0000880C821644805F093FC64480088C82848
:1023D00002DBC8206149088010BD10B586B00446F4
:1023E0000121042000F01DFD0121480400F026FD1C
:1023F0005D4801F073FA0420ADF8140003208DF855
:10240000160018208DF8170005A9554800F09EF910
:102410000820ADF8140004208DF8170005A95048D5
:1024200000F094F926208DF8000003208DF80100BB
:102430008DF8020001208DF80300684600F0BDF819
:1024400001940020ADF80800ADF80A00ADF80C00CA
:10245000ADF810000C20ADF80E0001A9424801F0C3
:1024600080FA012240F225513F4801F012FB012180
:102470003D4801F002FB06B010BD10B540F22551F9
:10248000394801F0EBFB10B3374801F067FBC4B2E9
:102490003648008800F40040C8B93448008800F489
:1024A000804060B10A2C03D000203049088020E031
:1024B0002E48008840F400402C49088019E00D2C7B
:1024C00006D12A48008840F480402849088010E05E
:1024D00026480088C0F30D001F490C54234800888B
:1024E000401C2249088008460088C72801DD0020DA
:1024F000088010BD10B504462146174805F04BFB77
:1025000008B1012010BD0020FCE710B500201549DE
:1025100081F8500081F8510081F87800502111486D
:1025200005F0E6FB0F485230002101604160018157
:1025300081720B3001604160018181725D38A0F8C9
:1025400068106A300160416081606A38A0F87610D6
:1025500010BD0000003801400D030020FE000020E7
:1025600000080140940200200044004004010020C3
:102570000948804709480047FEE7FEE7FEE7FEE717
:10258000FEE7FEE7FEE7FEE7FEE7FEE70448054953
:10259000054A064B704700006D0B0008310100082A
:1025A00038AE002038B4002038B0002038B0002009
:1025B00031490143314A1160704770B50021002351
:1025C0000F22C47804B32D4C246804F4E064C4F5ED
:1025D000E064210AC1F10403CA40447804FA03F11B
:1025E0008478144021430901254C0678A1550478CC
:1025F00004F01F050124AC4005786D11AD0005F114
:10260000E025C5F8004109E0047804F01F05012425
:10261000AC401C4D0678761145F8264070BD1A4A2C
:102620000A400243154B1B1F1A60704739B1134A09
:10263000121D12680243114B1B1D1A6006E00F4A5F
:10264000121D126882430D4B1B1D1A60704704282F
:1026500008D14FF0E021096941F004014FF0E02278
:10266000116107E04FF0E021096921F004014FF00A
:10267000E0221161704700000000FA050CED00E057
:1026800000E400E080E100E080FFFF1F10B5044699
:10269000CC48844208D10121042000F0E9FB00214C
:1026A000042000F0E5FB46E0C748844208D1012140
:1026B000082000F0DDFB0021082000F0D9FB3AE003
:1026C000C248844208D10121102000F0D1FB002132
:1026D000102000F0CDFB2EE0BD48844208D101213E
:1026E000202000F0C5FB0021202000F0C1FB22E0EB
:1026F000B848844208D10121402000F0B9FB0021F4
:10270000402000F0B5FB16E0B348844208D1012117
:10271000802000F0ADFB0021802000F0A9FB0AE042
:10272000AE48844207D10121801500F0A1FB0021B1
:10273000A01500F09DFB10BD10B50121084600F06A
:1027400097FB0021012000F093FB10BD2DE9F04123
:10275000024600250026002000230024002791F8CF
:1027600003C00CF00F0591F803C00CF0100CBCF185
:10277000000F03D091F802C04CEA050591F800C0A3
:10278000BCF1000F31D0146800202BE04FF0010C99
:102790000CFA00F3B1F800C00CEA03069E4220D107
:1027A00083004FF00F0C0CFA03F7BC4305FA03FC4F
:1027B0004CEA040491F803C0BCF1280F06D14FF095
:1027C000010C0CFA00FCC2F814C00AE091F803C036
:1027D000BCF1480F05D14FF0010C0CFA00FCC2F817
:1027E00010C0401C0828D1D31460B1F800C0BCF15F
:1027F000FF0F34DD546800202EE000F1080C4FF08C
:10280000010808FA0CF3B1F800C00CEA03069E4276
:1028100021D183004FF00F0C0CFA03F7BC4305FAEB
:1028200003FC4CEA040491F803C0BCF1280F05D165
:1028300000F1080C08FA0CF8C2F8148091F803C0F3
:10284000BCF1480F07D100F1080C4FF0010808FA5D
:102850000CF8C2F81080401C0828CED35460BDE8A4
:10286000F0814FF6FF710180022181700421C17057
:1028700070470246002093680B400BB1012000E036
:10288000002070470146886880B2704702460020E9
:10289000D3680B400BB1012000E0002070470146D7
:1028A000C86880B2704701617047416170470AB1E2
:1028B000016100E041617047C16070474FF48032B0
:1028C0000A4382618161826182698269704702463E
:1028D0000020434B18684FF68073184040EA0210FE
:1028E00008433F4B186070473E49C8617047F0B5D8
:1028F0000A46002300240021002500F00046B6F11E
:10290000004F02D1364EF16901E0354E7168C0F3D7
:10291000034583B200F44016B6F5401F08D121F0FC
:1029200070612F4E766826F070662D4F7E6012E043
:1029300000F48016B6F5801F06D1032606FA05F4CA
:10294000A14341F0706106E0460D360103FA06F638
:10295000B14341F0706122B1460D360103FA06F62B
:10296000314300F00046B6F1004F02D11C4EF16138
:1029700001E01B4E7160F0BD30B500228B071C0FCB
:102980000F2303FA04F2164B08338C1053F824304B
:102990009343134C08348D1044F8253023468C1093
:1029A00053F824308C07240F00FA04F423430C4C12
:1029B00008348D1044F8253030BD0A49DC310860F8
:1029C0007047000000080140000C01400010014069
:1029D0000014014000180140001C0140002001408B
:1029E0000000014000002042FB48006840F0010068
:1029F000F949086008464068F8490840F6494860C7
:102A000008460068F6490840F3490860084600682F
:102A100020F4802008600846406820F4FE004860EA
:102A20000846006820F0A05008604FF47F008860DE
:102A30000020C8627047E849096821F48031E64AFD
:102A400011601146096821F480211160B0F5803FC2
:102A500003D0B0F5802F0ED106E0DF49096841F4BC
:102A60008031DD4A116007E0DB49096841F4A021AB
:102A7000D94A116000E000BF00BF704710B50146A1
:102A80000022002300204A11012A02D1D24C2368DF
:102A900006E0022A02D1D04C236A01E0CE4C636AE0
:102AA00001F01F02012494401C400CB1012000E001
:102AB000002010BD38B5002000900024002500BF84
:102AC0003120FFF7DBFF05460098401C009000987E
:102AD000B0F5A06F01D0002DF2D03120FFF7CEFF6E
:102AE00008B1012400E00024204638BD0146002042
:102AF000B94A106820F0F80040EAC1001060704741
:102B0000B8490860704702460020B34B586820F46B
:102B1000741042EA01031843AF4B58607047B14943
:102B20000866704702460020AB4BD86AAE4B18408F
:102B300042EA01031843A84BD862704701460020BF
:102B4000A54AD06A20F0F0000843D06270470146E1
:102B50000020A14AD06A20F470600843D062704718
:102B6000A04988667047014600209B4AD06A20F43D
:102B700070400843D06270479A4908677047014621
:102B80000020954A506820F00300084350607047C9
:102B90009148406800F00C007047014600208E4AC2
:102BA000506820F0F0000843506070470146002054
:102BB000894A506820F4E06008435060704701463D
:102BC0000020854A506820F4605040EAC1005060FF
:102BD000704729B1804A527A02437F4B5A7204E00F
:102BE0007D4A527A82437C4B5A7270477D49D83174
:102BF0000860704701460020774A506820F4404042
:102C00000843506070477949086070477749091D4B
:102C1000086070470021704A203211706E4A82F8B5
:102C20002010012802D004280AD104E001216A4AB8
:102C30002032117005E00521674A2032117000E052
:102C400000BF00BF70476A49086070476249096A5F
:102C50000143614A11627047654944390860704711
:102C60002DE9F04100210022002500230026002448
:102C700000278C46DFF86081D8F8048008F00C014A
:102C800021B1042907D0082959D109E0DFF864816E
:102C9000C0F8008058E0DFF86081C0F8008053E0A1
:102CA000DFF83481D8F8048008F47012DFF8288146
:102CB000D8F8048008F48035920C0D2A01D0921CBB
:102CC00000E0062235B9DFF8348102FB08F8C0F8CD
:102CD000008033E0DFF80081D8F82C8008F48036DB
:102CE000DFF8F480D8F82C8008F00F0808F1010410
:102CF00046B9DFF80481B8FBF4F808FB02F8C0F825
:102D000000801BE0DFF8D080D8F82C80C8F30318CF
:102D100008F10107DFF8C080D8F82C80C8F3032839
:102D200008F1020CDFF8D080B8FBF7F808FB0CF8CC
:102D3000B8FBF4F808FB02F8C0F8008004E0DFF804
:102D4000B480C0F8008000BF00BFDFF88C80D8F8E6
:102D5000048008F0F0010909DFF8A48018F80130B8
:102D6000D0F8008028FA03F8C0F80480DFF8688003
:102D7000D8F8048008F4E061090ADFF8848018F8C4
:102D80000130D0F8048028FA03F8C0F80880DFF892
:102D90004880D8F8048008F46051C90ADFF86080E0
:102DA00018F80130D0F8048028FA03F8C0F80C8035
:102DB000DFF82480D8F8048008F44041890BDFF85C
:102DC000448018F80130D0F80C80B8FBF3F8C0F854
:102DD0001080BDE8F0810000001002400000FFF00C
:102DE000FFFFF6FE00004242F0FFFEFFC405424234
:102DF0008004424200127A0040787D0100093D00C3
:102E0000060100201601002029B1354A526902430B
:102E1000334B5A6104E0324A52698243304B5A6163
:102E2000704729B12E4A926902432D4B9A6104E002
:102E30002B4A926982432A4B9A61704729B1284AEA
:102E4000D2690243264BDA6104E0254AD269824303
:102E5000234BDA61704729B1214A926A0243204B21
:102E60009A6204E01E4A926A82431D4B9A6270473E
:102E700029B11B4AD2680243194BDA6004E0184AB0
:102E8000D2688243164BDA60704729B1144A12693E
:102E90000243134B1A6104E0114A12698243104B3A
:102EA0001A6170470F49086070470F49C86470473E
:102EB0000B49C87170470A48406A40F08070084961
:102EC0004862704701460020054A92680A400AB1EC
:102ED000012000E00020704701498872704700001F
:102EE00000100240400442420000424210B5044635
:102EF000FE48844209D101214806FFF7C6FF0021A0
:102F00004FF00070FFF7C1FF08E001218806FFF7CE
:102F1000BCFF00214FF08060FFF7B7FF10BD30B558
:102F2000024600200023146824F002041460146890
:102F300044F00104146000E05B1C546804F00104D8
:102F40001CB94FF6FF74A342F6D1546804F0010493
:102F50000CB900206CE08C79012C04D1146844F089
:102F60008004146003E0146824F080041460CC79B9
:102F7000012C04D1146844F04004146003E0146888
:102F800024F0400414600C7A012C04D1146844F03D
:102F90002004146003E0146824F0200414604C7AC8
:102FA000012C04D1146844F01004146003E0146888
:102FB00024F0100414608C7A012C04D1146844F0BD
:102FC0000804146003E0146824F008041460CC7A48
:102FD000012C04D1146844F00404146003E0146864
:102FE00024F0040414608C78A407CD7844EA0564C6
:102FF0000D7944EA05444D7944EA05540D886D1E67
:103000002C43D461146824F001041460002300E010
:103010005B1C546804F001041CB14FF6FF74A3421A
:10302000F6D1546804F001040CB1002000E0012046
:1030300030BD10B50021837A012202FA03F1AC4AB7
:10304000126842F00102AA4B1A60A94A1C321268A7
:103050008A43A74B1C331A60027BCAB9A44A0C32BC
:1030600012688A43A24B0C331A604288C38842EA32
:1030700003439F4A4032847A42F83430028883887E
:1030800042EA03439A4A4032847A02EBC402536014
:10309000027B012A19D1964A0C3212680A43944BDA
:1030A0000C331A604288038842EA0343904A403254
:1030B000847A42F83430C288838842EA03438C4AD7
:1030C0004032847A02EBC4025360C27A3AB9884A29
:1030D000121D12688A43864B1B1D1A6006E0844A43
:1030E000121D12680A43824B1B1D1A60028932B9F5
:1030F0007F4A143212688A437D4B14331A60028966
:10310000012A06D17A4A143212680A43784B1433E2
:103110001A60427B012A06D1754A1C3212680A43A2
:10312000734B1C331A60724A126822F00102704B12
:103130001A6010BD00218171C171017241728172EA
:10314000C1728170C170032101710221417101219D
:10315000018070476649096841F00101644A1160C5
:103160001146096843F60E729143614A1160114697
:10317000096841EA002111601146096821F0010146
:103180001160704721B1026842F48032026003E0AE
:10319000026822F4803202607047E1B1026842F0B6
:1031A000800202604FF4C272125842F480734FF4EE
:1031B000C27213504FF4CA72125842F480734FF423
:1031C000CA7213504FF4D272125842F480734FF403
:1031D000D27213501BE0026822F0800202604FF4AA
:1031E000C272125822F480734FF4C27213504FF41B
:1031F000CA72125822F480734FF4CA7213504FF4FB
:10320000D272125822F480734FF4D2721350704766
:1032100010B502460020936803F08063B3F1806F1D
:1032200000D110E0936803F00063B3F1006F01D1A7
:10323000012008E0936803F08053B3F1805F01D16F
:10324000022000E00420042879D002F5C07303EBCB
:1032500000131B6803F0010402F5C07303EB0013B5
:103260001C600B7A7BB94B7A0C8843EA445302F515
:10327000C07404EB00142468234302F5C07404EB0B
:103280000014236010E00B7A4C6843EAC4034C7AC4
:10329000234302F5C07404EB00142468234302F5B1
:1032A000C07404EB001423608B7A03F00F038B725D
:1032B00002F5C07303EB00135B6823F00F0402F503
:1032C000C07303EB00135C6002F5C07303EB0013E3
:1032D0005B688C7A234302F5C07404EB00146360CE
:1032E0008B7B1C064B7B44EA034403E000640040F4
:1032F000006600400B7B44EA0323CC7A234302F5AB
:10330000C07404EB0014A3608B7C1C064B7C44EA65
:1033100003440B7C44EA0323CC7B234302F5C074B3
:1033200004EB0014E36002F5C07303EB00131B68A9
:1033300043F0010402F5C07303EB00131C6010BDE1
:1033400010B50246002321B1012907D002290FD16F
:1033500009E09068F94C00EA04030BE09068F84C2F
:1033600000EA040306E09068F64C00EA040301E07A
:10337000002300BF00BFF44C181BA34216D007DC8B
:1033800083B16FF08060184470B1022818D111E049
:10339000B0F5007F10D0ED4C204448B1B0F5003FAF
:1033A0000ED10BE002230DE000230BE0002309E027
:1033B000002307E0012305E0012303E0012301E0EE
:1033C000002300BF00BFD8B210BD21B1012907D032
:1033D00002290FD109E0826842F0800282600AE08F
:1033E000826842F40042826005E0826842F4000292
:1033F000826000E000BF00BF704710B500F5D873D1
:1034000003EB01131B6803F004031372137A53B91F
:1034100000F5D87303EB01131B6840F2FF7404EA54
:103420005353136009E000F5D87303EB01131B68D5
:103430006FF0604404EAD303536000F5D87303EBE4
:1034400001131B6803F00203537200F5D87303EBFA
:1034500001135B6803F00F03937200F5D87303EB5D
:1034600001135B681B0AD37400F5D87303EB0113D7
:103470009B68D37200F5D87303EB01139B681C0A99
:10348000147300F5D87303EB01139B681C0C547381
:1034900000F5D87303EB01139B681B0E937300F5C3
:1034A000D87303EB0113DB68D37300F5D87303EB18
:1034B0000113DB681C0A147400F5D87303EB0113C5
:1034C000DB681C0C547400F5D87303EB0113DB6844
:1034D0001B0E937421B9C36843F02003C36003E05B
:1034E000036943F02003036110BD21B9C26842F0B3
:1034F0002002C26003E0026942F0200202617047CC
:103500000246002019B9D36803F0030006E0012940
:1035100003D1136903F0030000E00020704710B5E9
:1035200002460B4600204FF6FF71BBB9146824F029
:10353000020444F00104146000E0491E546804F0E1
:103540000304012C01D00029F7D1546804F00304CE
:10355000012C01D0002032E0012030E0012B13D1FA
:10356000146824F00304146000E0491E546804F059
:1035700003040CB10029F8D1546804F003040CB121
:1035800000201CE001201AE0022B17D1146824F05F
:10359000010444F00204146000E0491E546804F081
:1035A0000304022C01D00029F7D1546804F003046D
:1035B000022C01D0002002E0012000E0002010BD1C
:1035C000014600200A6822F0010242F002020A606D
:1035D0004A6802F00302022A00D101207047014626
:1035E0004FF6FF7200200B6823F002030B6000E02F
:1035F000521E4B6803F00203022B01D1002AF7D1BF
:103600004B6803F00203022B00D0012070470146F3
:1036100000208A6902F070007047014600208A6924
:10362000100E7047014600208A69C2F307407047B8
:103630001AB143690B43436102E043698B43436121
:10364000704710B50246002001F4700343B193693E
:10365000C1F3130423400BB101202DE000202BE027
:1036600001F0807343B15368C1F3130423400BB1DD
:10367000012021E000201FE001F0006343B19368C6
:10368000C1F3130423400BB1012015E0002013E027
:1036900001F0007343B1D368C1F3130423400BB1AD
:1036A000012009E0002007E01369C1F3130423405F
:1036B0000BB1012000E0002010BD0022244B9942F4
:1036C00002D10023836111E0C1F3130201F0007302
:1036D0000BB1C2600AE001F080630BB1026105E04A
:1036E00001F000630BB1826000E042607047024667
:1036F000002002EA01030BB1012000E00020704726
:1037000070B504460D46002660692840002872D036
:10371000B5F5807F69D01DDC082D42D006DC012D77
:103720002DD0022D31D0042D7FD134E0102D3ED08C
:10373000202D42D0402D78D145E000000300000448
:103740000003000800000310000100080001FFF75B
:103750007000F030B5F5004F61D009DCB5F5007FA1
:103760004AD0B5F5806F4DD0B5F5006F5DD150E012
:10377000B5F5803F2DD0B5F5003F56D12FE0A068BC
:103780005549FFF7B4FF064651E0E0680321FFF713
:10379000AEFF06464BE0E0680821FFF7A8FF0646AB
:1037A00045E0E0681021FFF7A2FF06463FE02069F0
:1037B0000321FFF79CFF064639E020690821FFF747
:1037C00096FF064633E020691021FFF790FF06467A
:1037D0002DE060680821FFF78AFF064627E0606851
:1037E0001021FFF784FF064621E0A0690121FFF7C1
:1037F0007EFF06461BE01BE0A0690221FFF777FF72
:10380000064614E0A0690421FFF771FF06460EE0AA
:103810000BE0A0697021FFF76AFF064607E06068C9
:103820000421FFF764FF064601E0002600BF00E028
:103830000026304670BDB1F5007F3AD00FDC20295C
:1038400028D006DC01291CD004291DD0082940D12C
:103850001DE0402921D0B1F5807F3AD126E0B1F5B5
:10386000004F31D006DCB1F5806F25D0B1F5006F87
:103870002FD124E0B1F5803F12D0B1F5003F28D11F
:1038800011E0154A826025E00822C26022E0102281
:10389000C2601FE0082202611CE01022026119E0F0
:1038A0000822426016E01022426013E004224260C7
:1038B00010E0042242600DE0042242600AE000228F
:1038C00082610422426005E000228261042242609B
:1038D00000E000BF00BF70470101010010B50446C1
:1038E000FB48844209D101218803FFF7C1FA002176
:1038F0004FF48040FFF7BCFA32E0F648844209D129
:1039000001214804FFF7C1FA00214FF40030FFF70E
:10391000BCFA25E0F048844209D101218804FFF770
:10392000B4FA00214FF48020FFF7AFFA18E0EB481B
:10393000844209D10121C804FFF7A7FA00214FF4FE
:103940000020FFF7A2FA0BE0E548844208D10121EC
:103950000805FFF79AFA00214FF48010FFF795FA57
:1039600010BD2DE9F04786B005460E460024A2465C
:1039700000BFA1460027B08900B100BF2F462C8AA6
:103980004CF6FF700440F08804432C82AC894EF65C
:10399000F3100440B0883189084371890843044317
:1039A000AC81AC8A4FF6FF400440B0890443AC823E
:1039B00001A8FFF755F9C648874202D1DDF810A0EB
:1039C00001E0DDF80CA0A88900F4004040B10AEB4A
:1039D000CA0000EB0A1031684900B0FBF1F807E0BB
:1039E0000AEBCA0000EB0A1031688900B0FBF1F85D
:1039F0006420B8FBF0F004012009642101FB108968
:103A0000A88900F4004040B1322000EBC900B0FBAF
:103A1000F1F000F00700044308E0322000EB091049
:103A20006421B0FBF1F000F00F0004432C8106B0DC
:103A3000BDE8F0874FF41651016000218180C180FC
:103A400001810C21418100218181704710B502461E
:103A50000020108A4FF2FF0318400B884C88234344
:103A60008C882343CC8823431843108210BD002147
:103A7000018041808180C180704721B1828942F4F8
:103A80000052828104E082894DF6FF731A408281E0
:103A90007047F0B50346002400260025002040F6BC
:103AA0006A17B94200D100BF1846C1F3421401F0B1
:103AB0001F06012707FA06F5012C01D10C3004E09E
:103AC000022C01D1103000E014301AB107682F43E6
:103AD000076002E00768AF430760F0BD1AB1838A50
:103AE0000B43838202E0838A8B4383827047028A7E
:103AF0004FF6F0731A400282028A0A43028270472C
:103B000082894FF2FF731A40828182890A4382813F
:103B1000704721B1828942F00202828104E08289E9
:103B20004FF6FD731A4082817047028A4FF6DF73A9
:103B30001A400282028A0A430282704721B1028A35
:103B400042F48042028204E0028A4BF6FF731A407C
:103B500002827047C1F3080282807047014688885C
:103B6000C0F308007047818941F0010181817047ED
:103B7000028BD2B20283028B42EA01220283704797
:103B8000028B02F47F420283028B0A430283704756
:103B900021B1828A42F02002828204E0828A4FF6BA
:103BA000DF731A408282704721B1828A42F010028C
:103BB000828204E0828A4FF6EF731A408282704755
:103BC00021B1828A42F00802828204E0828A4FF6A2
:103BD000F7731A408282704721B1828942F4004211
:103BE000828103E08289C2F30E028281704721B193
:103BF000828A42F40062828204E0828A4FF2FF737A
:103C00001A4082827047828A4FF6FB731A40828282
:103C1000828A0A438282704721B1828A42F002027C
:103C2000828204E0828A4FF6FD731A4082827047D6
:103C300002460020B1F5007F00D100BF13880B4081
:103C40000BB1012000E00020704701F40072B2F5D2
:103C5000007F00D100BFCA430280704770B50246A2
:103C6000002400230025002040F66A16B14200D14E
:103C700000BFC1F3421501F01F03012606FA03F34A
:103C8000012D02D19689334006E0022D02D1168A19
:103C9000334001E0968A33400C12012606FA04F400
:103CA0001688344013B10CB1012000E0002070BD33
:103CB00010B50022002340F66A14A14200D100BFD3
:103CC0000A1201249440A3B2DC43048010BD00001A
:103CD000003801400044004000480040004C0040D3
:103CE0000050004010B50446FE48844208D101212E
:103CF000C014FFF7BDF80021E014FFF7B9F8C4E0E5
:103D0000B4F1804F08D101210846FFF7BEF8002129
:103D10000120FFF7BAF8B8E0F348844208D1012146
:103D20000220FFF7B2F800210220FFF7AEF8ACE066
:103D3000EE48844208D101210420FFF7A6F80021B3
:103D40000420FFF7A2F8A0E0E948844208D101214D
:103D50000820FFF79AF800210820FFF796F894E072
:103D6000E448844208D101211020FFF78EF8002199
:103D70001020FFF78AF888E0DF48844208D101214B
:103D80002020FFF782F800212020FFF77EF87CE05A
:103D9000DA48844208D101214014FFF769F8002174
:103DA0006014FFF765F870E0D548844209D101211D
:103DB000C804FFF75DF800214FF40020FFF758F822
:103DC00063E0D048844209D101210805FFF750F88B
:103DD00000214FF48010FFF74BF856E0CA488442A8
:103DE00009D101214805FFF743F800214FF40010E5
:103DF000FFF73EF849E0C548844208D10121402040
:103E0000FFF743F800214020FFF73FF83DE0C048AE
:103E1000844208D101218020FFF737F8002180205B
:103E2000FFF733F831E0BB48844208D10121801507
:103E3000FFF72BF80021A015FFF727F825E0B6487B
:103E4000844209D101210804FFF712F800214FF440
:103E50008030FFF70DF818E0B048844209D1012105
:103E60004804FFF705F800214FF40030FFF700F891
:103E70000BE0AB48844208D101218804FEF7F8FF2B
:103E800000214FF48020FEF7F3FF10BD00220288CE
:103E9000944B98420ED0994B98420BD0B0F1804F82
:103EA00008D0914B984205D0904B984202D0904B4D
:103EB000984204D14FF68F731A404B881A438D4BAA
:103EC000984207D08C4B984204D04FF6FF431A40DB
:103ED000CB881A4302808B8883850B880385814BAE
:103EE00098420BD0854B984208D08B4B984205D016
:103EF0008A4B984202D08A4B984201D10B7A0386B2
:103F000001238382704770B5002400220023058CB2
:103F10004FF6FE7635400584028C8388048B4FF67D
:103F20008F752C40B51E2C400D882C43751E2A40E1
:103F30000D892A434D882A436A4DA8420BD06F4D04
:103F4000A84208D0744DA84205D0744DA84202D0B2
:103F5000734DA84213D14FF6F7752A404D892A4375
:103F60004FF6FB752A408D882A434FF6FF652B409C
:103F70004FF6FF552B408D892B43CD892B438380F2
:103F80000483CD888586028470BD70B5002400222C
:103F90000023058C4FF6EF7635400584028C83882C
:103FA000048B48F6FF752C404FF6FF452C400D88DA
:103FB0004FF6FF7606EA05252C434FF6DF752A40BB
:103FC0000D8906EA05152A434D8806EA05152A4398
:103FD000444DA84202D0494DA8421DD14FF67F75ED
:103FE0002A404D894FF6FF7606EA05152A434FF61B
:103FF000BF752A408D8806EA05152A434FF6FF351E
:104000002B404FF2FF752B408D8906EA85052B4327
:10401000CD8906EA85052B4383800483CD880587F7
:10402000028470BD70B5002400220023058C4FF679
:10403000FF6635400584028C8388848B4FF68F752C
:104040002C404FF6FC752C400D882C434FF6FF5545
:104050002A400D894FF6FF7606EA05252A434D884A
:1040600006EA05252A431F4DA84202D0234DA84247
:104070001DD14FF2FF752A404D894FF6FF7606EAB3
:1040800005252A434FF6FF352A408D8806EA052587
:104090002A434EF6FF752B404DF6FF752B408D8958
:1040A00006EA05152B43CD8906EA05152B438380C7
:1040B0008483CD888587028470BD70B5002200237B
:1040C0000024058C4EF6FF7635400584038C8488E9
:1040D000828B48F6FF752A404FF6FF452A400D882F
:1040E00020E00000002C01400004004000080040D7
:1040F000000C00400010004000140040003401405B
:10410000004C0140005001400054014000180040A4
:10411000001C0040002000400040014000440140DD
:10412000004801404FF6FF7606EA05252A434DF682
:10413000FF752B400D8906EA05352B434D8806EAAD
:1041400005352B43FA4DA84202D0FA4DA84208D1BA
:104150004BF6FF752C408D894FF6FF7606EA8515E4
:104160002C4384808283CD88A0F84050038470BDA6
:10417000828B4FF2FF331A408283828B4FF6FF739C
:1041800003EA01231A4382837047F0B50C461546B3
:10419000002200210026078C4EF6FF7C07EA0C0760
:1041A0000784828B018C4FF6FF7707EA043640F6CE
:1041B000FF473A404FF6FF7707EA05273A434FF6A5
:1041C000FF7707EA03373A43D94FB8420ED0D94FA9
:1041D000B8420BD0B0F1804F08D0D74FB84205D0CD
:1041E000D64FB84202D0D64FB84206D14DF6FF772F
:1041F000394046F48057394305E047F6FF573940C8
:1042000044F48057394382830184F0BD828B4FF69A
:10421000F3731A408283828B0A4382837047F0B51E
:104220000C461546002200210026078C4FF6FF6C35
:1042300007EA0C070784828B018C4FF6FF7707EAA9
:1042400004264FF60C773A404FF6FF7707EA03173C
:104250002F433A43B64FB8420ED0B64FB8420BD0B8
:10426000B0F1804F08D0B44FB84205D0B34FB84238
:1042700002D0B34FB84206D14FF6FF57394046F44B
:104280008077394305E04FF2FF57394044F4807797
:10429000394382830184F0BD028B4FF2FF331A4011
:1042A0000283028B4FF6FF7303EA01231A43028352
:1042B0007047F0B50C461546002200210026078CF9
:1042C0004FF6EF7C07EA0C070784028B018C4FF650
:1042D000FF7707EA041640F6FF473A404FF6FF77AC
:1042E00007EA03373A434FF6FF7707EA05273A43D1
:1042F0008F4FB8420ED08F4FB8420BD0B0F1804FE5
:1043000008D08D4FB84205D08C4FB84202D08C4FA8
:10431000B84206D14FF6DF77394046F010073943EF
:1043200005E04FF65F77394044F0100739430283C8
:104330000184F0BD028B4FF6F3731A400283028BA7
:104340000A4302837047F0B50C461546002200214F
:10435000068C4FF6FE773E400684028B018C4FF6AA
:104360000C7632407E1C06EA03162E433243704E12
:10437000B0420ED06F4EB0420BD0B0F1804F08D09B
:104380006D4EB04205D06D4EB04202D06C4EB04280
:1043900006D14FF6FD76314044F00106314305E089
:1043A0004FF6F576314044F0010631430283018433
:1043B000F0BD70B505460C465D4885420ED05D489F
:1043C00085420BD0B5F1804F08D05B48854205D0BF
:1043D0005A48854202D05A48854200D100E000BFC9
:1043E000208850B92389A28861882846FFF7ABFF4F
:1043F000E1882846FFF79EFF25E0208804280AD19F
:104400002389A28861882846FFF753FFE188284660
:10441000FFF742FF17E0208808280AD12389A288E5
:1044200061882846FFF7FBFEE1882846FFF7EEFE8D
:1044300009E02389A28861882846FFF7A6FEE18863
:104440002846FFF795FE70BD2DE9F04105460C4664
:1044500000260127608808B9022600E00026A0880F
:10446000012801D1022700E001272088A0B9238973
:10447000A28861882846FFF766FFE1882846FFF793
:1044800059FF23893A4631462846FFF712FFE18853
:104490002846FFF701FF13E02389A2886188284698
:1044A000FFF707FFE1882846FFF7F6FE23893A4623
:1044B00031462846FFF747FFE1882846FFF73AFFD5
:1044C000BDE8F0810A884B881A438B881A43CB8851
:1044D0001A430B891A434B891A438B891A43A0F854
:1044E000442070474FF6FF71818000210180C18018
:1044F0004180017270470021018041808180C1802C
:10450000018141818181C181704700210180418009
:10451000012181800021C18001817047002101803B
:1045200041808180C180018141818181704700008B
:10453000002C01400034014000040040000800400D
:10454000000C004021B1028842F00102028004E028
:1045500002884FF6FE731A400280704731B1B0F8FE
:10456000442042F40042A0F8442005E0B0F8442082
:10457000C2F30E02A0F8442070471AB183890B439E
:10458000838102E083898B438381704781827047F6
:1045900041EA0203A0F8483070471AB183890B43FF
:1045A000838102E083898B438381704701894FF6C1
:1045B000F8721140018170470A46002101894FF6C7
:1045C0008F73194011430181704730B504460D4681
:1045D00029462046FFF7F0FF208940F007002081A0
:1045E00030BD2DE9F04104460D4616461F46602DAC
:1045F00006D13B46012231462046FFF75AFE05E030
:104600003B46012231462046FFF79DFE29462046C3
:10461000FFF7D2FF208940F007002081BDE8F0813C
:1046200030B50C4600210189C9B24FF6FF7505EA85
:104630000325154325432943018130BD2DE9F04170
:1046400005460E4617469846002443463A463146EC
:104650002846FFF7E5FF2C894FF6F870044044F038
:1046600007044FF68F70044044F070042C81BDE8BD
:10467000F081F0B504460D4616461F463B463246CD
:1046800029462046FFF7CCFF208940F48040208156
:10469000F0BD0185828270470A46002101884FF6ED
:1046A0008F731940114301807047F0B50C461546D1
:1046B0001E460021002200230189028B038C4FF645
:1046C000F877394021434FF6FC473A4040F2011752
:1046D0003A434FF6DD773B404FF6FF7707EA061780
:1046E0002F433B43018102830384F0BD0A4600212E
:1046F000018B4FF68F7319401143018370470A46AF
:104700000021018B48F6FF7319404FF6FF7303EA4F
:1047100002231943018370470A460021818B4FF61B
:104720008F7319401143818370470A460021818BA2
:1047300048F6FF7319404FF6FF7303EA022319434B
:104740008183704721B1028842F08002028004E038
:1047500002884FF67F731A400280704721B1828829
:1047600042F00402828004E082884FF6FB731A4014
:104770008280704721B1828842F00802828004E082
:1047800082884FF6F7731A408280704721B1828881
:1047900042F00102828004E082884FF6FE731A40E4
:1047A000828070470A460021018B4FF6F77319404B
:1047B0001143018370470A460021018B4FF2FF73BA
:1047C00019404FF6FF7303EA022319430183704730
:1047D0000A460021818B4FF6F773194011438183FC
:1047E00070470A460021818B4FF2FF7319404FF644
:1047F000FF7303EA02231943818370470A460021AD
:10480000018B4FF6FB7319401143018370470A4631
:104810000021018B4FF6FF3319404FF6FF7303EA77
:1048200002231943018370470A460021818B4FF60A
:10483000FB7319401143818370470A460021818B25
:104840004FF6FF3319404FF6FF7303EA0223194373
:10485000818370470A460021018B4FF67F73194010
:104860001143018370470A460021018BC1F30E01F9
:104870004FF6FF7303EA02231943018370470A4688
:104880000021818B4FF67F7319401143818370475C
:104890000A460021818BC1F30E014FF6FF7303EA34
:1048A00002231943818370470A460021018C4FF689
:1048B000FD7319401143018470470A460021018CA1
:1048C0004FF6F77319401143018470470A460021DF
:1048D000018C4FF6DF7319404FF6FF7303EA0213A2
:1048E0001943018470470A460021018C4FF67F73FB
:1048F00019404FF6FF7303EA02131943018470470E
:104900000A460021018C4FF6FF5319404FF6FF7302
:1049100003EA02231943018470470A460021018CEF
:104920004FF2FF7319404FF6FF7303EA0223194356
:10493000018470470A460021018C4DF6FF7319402F
:104940004FF6FF7303EA023319430184704730B511
:10495000002301248C40A3B2048C9C430484048C67
:1049600002FA01F5ADB22C43048430BD30B500230A
:1049700004248C40A3B2048C9C430484048C02FA6B
:1049800001F5ADB22C43048430BD70B50346002060
:1049900000241846183001258D40ACB21D8CA5436B
:1049A0001D8409B1082909D100EB6100056825F0D3
:1049B000700505600568154305600EE00D1FC5F321
:1049C0004E052844056825F4E045056005684FF666
:1049D000FF7606EA02263543056070BD21B10288E4
:1049E00042F00202028004E002884FF6FD731A4092
:1049F0000280704721B1028842F00402028004E084
:104A000002884FF6FB731A400280704721B18288FA
:104A100042F08002828004E082884FF67F731A4061
:104A20008280704702884FF6F7731A40028002882E
:104A30000A430280704782884FF68F731A40828043
:104A400082880A438280704702894FF6F8731A40C1
:104A5000028102890A430281704702894FF67F73FF
:104A60001A40028102890A4302817047818470479B
:104A700081857047818670470187704781877047BD
:104A8000A0F84010704702884FF6FF431A4002809A
:104A900002880A43028070470146888E70470146AB
:104AA000088F70470146888F70470146B1F8400073
:104AB00070470146888C70470146088D7047024652
:104AC0000020138A0B400BB1012000E0002070474A
:104AD000CA430282704730B50246002000230024FA
:104AE000158A05EA0103958905EA010413B10CB1A1
:104AF000012000E0002030BDCA4302827047000060
:104B000010B50446CE48844208D101218014FEF736
:104B1000AFF90021A014FEF7ABF916E0C9488442B2
:104B200008D101210014FEF7B0F900212014FEF78E
:104B3000ACF90AE0C448844207D10121C013FEF752
:104B4000A4F90021E013FEF7A0F910BD10B5002272
:104B5000028802F441520B884C8823438C882343FB
:104B6000CC8823430C8923434C8923438C892343DA
:104B7000CC8923431A430280838B4FF2FF74234076
:104B800083830B8A038210BD2DE9F04F85B0064662
:104B90000C464FF0000A02274FF000084FF0010BBF
:104BA0000025A946B08B4FF240010840B083022097
:104BB0003084B6F81CA0A068022801D100BF59E0DB
:104BC000A08810B94FF0010B01E04FF0020B9D4897
:104BD000864202D14FF4003501E04FF480259B4816
:104BE000C06A2840C8B19948C06AC0F30335052D92
:104BF00003D90F2D01D2AD1C02E00F2D00D11425D9
:104C00009248C06AC0F3031000F101099048B0FB5C
:104C1000F9F068434FEA400904E06846FEF720F8DF
:104C2000DDF80090E088B0F5007F0AD14FEA192046
:104C300000EB80004000A168B0FBF1F0401D85B2A0
:104C40000BE04FEA4B10B9FBF0F000EB80004000A6
:104C5000A168B0FBF1F0401D85B20A20B5FBF0F56C
:104C600005F00108A5EB0800C0F34F074FF6FF70F1
:104C700000EA0828022F01DBFF2F02DD02274FF098
:104C80000008E08840EA080038433084A088A18901
:104C90000843618808432188084340F4006040EAE3
:104CA0000A0AA6F81CA005B0BDE8F08F002101801B
:104CB00041808180C180018141818181C181072141
:104CC000018270470021018041808180C1800221E2
:104CD000816000218181704721B1028842F0400249
:104CE000028004E002884FF6BF731A4002807047CA
:104CF00021B1828B42F48062828304E0828B4FF682
:104D0000FF331A408283704730B5002400230C1112
:104D10000125A540ABB21AB185881D43858002E00C
:104D200085889D43858030BD1AB183880B4383807D
:104D300002E083888B4383807047818170470146FE
:104D4000888970474FF6FF62914204D0028842F48E
:104D50008072028004E002884FF6FF631A400280EE
:104D6000704721B1828842F00402828004E0828888
:104D70004FF6FB731A408280704702884FF2FF7330
:104D80001A40028002880A4302807047018841F479
:104D900080510180704721B1028842F400520280A4
:104DA00004E002884DF6FF731A4002807047024605
:104DB0000020012901D0108B00E0908A7047014645
:104DC000088A7047B1F5804F04D1028842F48042CE
:104DD000028004E002884BF6FF731A40028070479D
:104DE0000246002013890B400BB1012000E0002097
:104DF0007047CA4302817047F0B502460020002484
:104E00000023002501F00F070126BE40B4B20B11AC
:104E100001269E40B3B2968806EA0305168926400D
:104E200016B10DB1012000E00020F0BD10B5002248
:104E300001F00F040123A3409AB2D343038110BDB4
:104E40000030014000380040003C004000100240AB
:104E500040787D0101460020704770B5044600256A
:104E60005CB9FCF744FD054635B1FCF7FCFBFF20BF
:104E7000FCF7F3FBFCF7FCFB01E0012500BF00BFE2
:104E80000DB1012070BD0020FCE72DE9F041064680
:104E90000F4690461D4615B90420BDE8F08176B94D
:104EA000EAB241463846FCF7E9FD044634B1FCF766
:104EB000DAFBFF20FCF7D1FBFCF7DAFB01E0012471
:104EC00000BF00BF0CB90020E7E70120E5E72DE9AE
:104ED000F04106460F4690461D4615B90420BDE830
:104EE000F08136B9EAB241463846FCF7FFFD044688
:104EF00001E0012400BF00BF0CB90020EFE7012052
:104F0000EDE72DE9F04106460F4615462EBB37B1B9
:104F1000012F1AD0022F0FD0032F1BD111E0002038
:104F200011490860FCF7CCFB08B9002400E001241B
:104F300001200D4908600FE04FF400702880002424
:104F40000AE008202880002406E0FCF795FC286091
:104F5000002401E0042400BF00E001242046BDE855
:104F6000F0810020704700009001214201464878FE
:104F70000A7842EA002070470146C8788A7842EAF7
:104F800000204A7842EA00200A7842EA002070476E
:104F900000F8011B091200F8011B704700F8011B03
:104FA000090A00F8011B090A00F8011B090A00F8A8
:104FB000011B704730B503460C463AB100BF14F8E8
:104FC000015B03F8015B551E2A00F8D130BD10B516
:104FD000034600BF03F8011B541E2200FAD110BD86
:104FE000F0B503461D460C46002000BF15F8017BB6
:104FF00014F801CBA7EB0C00561E320001D000289C
:10500000F4D0F0BD024600E0521C107810B11078C8
:105010008842F9D1107870472DE9F0410446002705
:10502000E078F8B1E56A607801232A4604F130019E
:10503000FFF74DFF08B1012714E00020E070206A5F
:10504000281AA16988420DD2A67809E0A069054412
:10505000607801232A4604F13001FFF738FF761EFD
:10506000022EF3D23846BDE8F08170B504460D46F5
:105070000026E06AA84210D02046FFF7CDFF064682
:105080005EB9607801232A4604F13001FFF7FDFE86
:1050900010B14FF0FF350126E562304670BD70B5A6
:1050A00004462046FFF7B8FF0546002D38D120788A
:1050B00003282ED1207901282BD14202002104F1AE
:1050C0003000FFF784FF4AF6552104F22E20FFF747
:1050D0005FFFFA4904F13000FFF760FFF84904F57B
:1050E0000570FFF75BFF04F506702169FFF756FFB7
:1050F00004F50770E168FFF751FFE069401CE062CA
:105100006078012304F13001E26AFFF7E0FE00203D
:105110002071607800221146FFF7F3FE00B10125EF
:10512000284670BD0246891E5069801E884201D8FB
:10513000002070475389906A01FB0300F9E72DE9CD
:10514000F04781460C46D9F80050022C02D368691A
:10515000A04202D84FF001085EE04FF0FF382878F7
:10516000012804D002282CD0032851D13CE0264647
:1051700006EB5606286A00EB56212846FFF775FF16
:1051800000B148E03046761CC0F3080105F130005C
:10519000475C286A00EB56212846FFF766FF00B1FE
:1051A00039E0C6F3080105F13000405C47EA00270A
:1051B00004F0010008B1380901E0C7F30B00804694
:1051C00029E0286A00EB14212846FFF74EFF00B1C2
:1051D00021E040F2FF1101EA440205F130015018CC
:1051E000FFF7C4FE804616E0286A00EBD41128467B
:1051F000FFF73BFF00B10EE040F2FF1101EA84022D
:1052000005F130015018FFF7B7FE20F0704802E0BA
:105210004FF0010800BF00BF4046BDE8F0872DE910
:10522000F04704460D4616464FF00209022D74D38E
:105230006069A84271D92078012804D0022849D099
:1052400003280DD15EE02F4607EB5707206A00EBDD
:1052500057212046FFF709FF8146B9F1000F00D022
:1052600075E038467F1CC0F3080104F1300001EB03
:10527000000805F0010028B1F1B298F8000061F3D0
:105280001F1000E0304688F800000120E070206A1E
:1052900000EB57212046FFF7E8FE8146B9F1000FE9
:1052A00000D054E0C7F3080104F1300001EB00081E
:1052B00005F0010010B1C6F3071006E098F80000F1
:1052C00000F0F000C6F30321084388F80000012035
:1052D000E0703CE0206A00EB15212046FFF7C5FE98
:1052E0008146B9F1000F00D031E0B1B240F2FF12B7
:1052F00002EA450304F130029818FFF749FE012045
:10530000E07024E0206A00EBD5112046FFF7ADFEE7
:105310008146B9F1000F01D019E019E040F2FF1108
:1053200001EA850204F130015018FFF725FE66F30B
:105330001B00064640F2FF1101EA850204F130012C
:1053400050183146FFF72AFE0120E07000BF00BF71
:105350004846BDE8F0872DE9F04781460E461746DE
:105360004FF00008D9F80040022E02D36069B04225
:1053700002D80220BDE8F08767B100BF4FF0FF32CE
:1053800039462046FFF74BFF8046B8F1000F01D0A9
:105390004046EFE700BF31464846FFF7D0FE0546DE
:1053A00005B922E0012D01D10220E3E7681C08B90C
:1053B0000120DFE7002231462046FFF730FF80461C
:1053C000B8F1000F01D04046D4E7D4E90410801EA4
:1053D000814206D22069401C2061207940F0010002
:1053E00020712E466069B042D5D800BF0020C1E7C9
:1053F0002DE9F04782468946DAF80040B9F1000FFE
:1054000006D1E76817B16069B84215D8012713E0E3
:1054100049465046FFF793FE0646022E02D201206F
:10542000BDE8F087701C08B93046F9E76069B04202
:1054300001D93046F4E74F463D4600BF6D1C606918
:10544000A84204D80225BD4201D90020E8E7294638
:105450005046FFF774FE064606B909E0012E01D05A
:10546000701C08B93046DBE7BD42E7D10020D7E722
:1054700000BF00BF4FF0FF3229462046FFF7CFFEA6
:105480008046B8F1000F08D1B9F1000F05D02A46C7
:1054900049462046FFF7C3FE8046B8F1000F11D100
:1054A000E560D4E90410801E814202D22069401ECA
:1054B0002061207940F0010020710BE052526141DF
:1054C00072724161B8F1010F02D14FF0FF3000E07C
:1054D000012005462846A3E7F0B503460D461E68A1
:1054E000986A021D680A7789B0FBF7F400BF02CA08
:1054F00009B90020F0BD8C4200D202E0641A121DEE
:10550000F5E700BF10682044F4E72DE9F0410446B8
:105510000D462668B5F5001F02D205F01F0010B138
:105520000220BDE8F0812561A7681FB93078032803
:1055300000DB776A47B93089B0EB551F01D80220EC
:10554000EFE7706AA0611CE070894FEA402811E023
:1055500039462046FFF7F3FD0746781C08B90120BD
:10556000DFE7022F02D37069B84201D80220D8E7E2
:10557000A5EB08054545EBD239463046FFF7D2FD8D
:10558000A0616761A06908B90220CAE7A06900EBC1
:105590005520A061C5F3080106F130000844E06120
:1055A0000020BEE72DE9F0470446894625682069BA
:1055B00000F12007A06910B1B7F5001F02D3042045
:1055C000BDE8F087C7F30800002868D1A069401C37
:1055D000A061606938B92889B0EB571F5FD80020F7
:1055E000A0610420ECE76889401E00EA57200028EB
:1055F00055D120466169FFF7A2FD0646012E01D86C
:105600000220DDE7701C08B90120D9E76869B042C3
:105610003FD8B9F1000F03D10020A0610420CFE7EB
:1056200020466169FFF7E4FE06460EB90720C7E78A
:10563000012E01D10220C3E7701C08B90120BFE789
:105640002846FFF7E9FC08B10120B9E74FF40072E2
:10565000002105F13000FFF7BAFC4FF00008314699
:105660002846FFF75FFDE8620CE00120E87028465D
:10567000FFF7D2FC08B10120A2E708F10108E86AAF
:10568000401CE86268894045EFD8E86AA0EB080052
:10569000E862666131462846FFF744FDA061276154
:1056A000C7F3080105F130000844E061002087E7F6
:1056B0002DE9F04104460E46D4F800800021204632
:1056C000FFF723FF0546EDB9002700BF4046A1695B
:1056D000FFF7CBFC054605B113E0E0690078E5284B
:1056E00002D0E069007820B9781C0746B04201D1A9
:1056F00007E0002701212046FFF754FF0546002D53
:10570000E4D000BF042D00D107252846BDE8F08174
:1057100070B505460C4604F11A00FFF727FC064653
:105720002878032805D104F11400FFF71FFC46EA8E
:105730000046304670BD70B506460C461546A9B207
:1057400004F11A00FFF724FC3078032804D1290C57
:1057500004F11400FFF71CFC70BD2DE9F04704466E
:1057600088460425D4F8009027E04846A169FFF751
:105770007CFC054605B123E0E06906780EB90425F6
:105780001EE0E069C07A00F03F07A771E52E0DD05A
:105790002E2E0BD00F2F09D027F02000082801D182
:1057A000012000E00020404500D109E00021204612
:1057B000FFF7F8FE054605B102E0A0690028D4D144
:1057C00000BF0DB10020A0612846BDE8F0872DE99B
:1057D000F0410446276800212046FFF796FE054663
:1057E00015B12846BDE8F08100BF3846A169FFF732
:1057F0003CFC054605B11DE0E06906780EB90425BC
:1058000018E0E069C07A00F03F00A071E069C07A5A
:1058100000F0080038B90B2204F12001E069FFF71D
:10582000DFFB00B906E000212046FFF7BBFE05467E
:10583000002DDAD000BF2846D4E770B504462668AC
:1058400001212046FFF734FF054695B93046A1698E
:10585000FFF70BFC054665B920220021E069FFF740
:10586000B6FB0B2204F12001E069FFF7A3FB012046
:10587000F070284670BD70B5044626683046A169B0
:10588000FFF7F3FB054625B9E520E1690870012023
:10589000F070284670BD2DE9F04705460C46002003
:1058A0006072A86908B9BDE8F087002637461CE099
:1058B0003046761CEA6912F80090B9F1200F00D149
:1058C00013E0B9F1050F01D14FF0E509092E05D11B
:1058D0002E2238467F1C04F109010A5438467F1CE9
:1058E00004F1090101F8009000BF0B2EE0D3002164
:1058F00004F10900C155E869C07A2072E96901F133
:105900001C00FFF739FB2060E96901F11600FFF781
:1059100033FB8046A4F806804FEA1840A08000BF01
:10592000C1E72DE9F05F82468846D8F800700AF199
:1059300020050B2220212846FFF749FB0020814645
:1059400006464FF0080B00BF3046761C3C5C202C0E
:1059500000DC34E02F2C01D05C2C08D100E0761C58
:10596000B85D2F28FBD0B85D5C28F8D027E02E2C3E
:1059700001D0D9450CD3BBF10B0F01D02E2C02D096
:105980000620BDE8F09F4FF008094FF00B0BDBE756
:10599000802C01DB0620F4E72146F7A0FFF732FB5D
:1059A00008B10620EDE7612C04DB7A2C02DCA4F1BF
:1059B0002000C4B2484609F101092C54C4E700BFD5
:1059C000B819C8F80000B9F1000F01D10620D8E7D6
:1059D0002878E52801D105202870202C01DC04203E
:1059E00000E00020E8720020CBE72DE9F3410446F7
:1059F0002646D6F8008002E00198401C01900198EC
:105A000000782F28F8D0019800785C28F4D0002086
:105A1000B06001980078202808D280212B20015501
:105A200000212046FFF771FD05462CE000BF01A9CB
:105A30002046FFF776FF054605B123E02046FFF735
:105A4000C6FE05462B20075D3DB1042D04D100BFE5
:105A500007F0040000B9052514E007F0040000B1C8
:105A600010E0B07900F0100008B905250AE0208A9E
:105A7000C0F3080208F1300011184046FFF748FE55
:105A8000B060D4E700BF2846BDE8FC8170B502468F
:105A90004FF0FF301568DDB1116800E0491C0D784A
:105AA000212D02D30D783A2DF8D10D783A2D0ED153
:105AB000146814F8015BA5F130030A2B06D28C425E
:105AC00004D11BB918464D1C2946156070BD002035
:105AD00000BFFBE770B504460D460020E070401E95
